:020000040000FA
:100000000C9463000C948B000C948B000C948B006C
:100010000C948B000C948B000C948B000C94810539
:100020000C948B000C948B000C948B000C948B0024
:100030000C948B000C948B000C948B000C948B0014
:100040000C9437050C948B000C9403060C94DD057E
:100050000C948B000C948B000C948B000C948B00F4
:100060000C948B000C948B000200000000240027ED
:10007000002A0000000000250028002B00000000DE
:100080000800020100000304070000000000000057
:1000900000000000002300260029000404040404DA
:1000A0000404040202020202020303030303030125
:1000B00002040810204080010204081020010204FC
:1000C00008102000350611241FBECFEFD8E0DEBF98
:1000D000CDBF12E0A0E0B1E0E8EBFBE102C005908B
:1000E0000D92AC31B107D9F723E0ACE1B2E001C029
:1000F0001D92A536B207E1F710E0C3E6D0E004C0D8
:100100002197FE010E94C50DC236D107C9F70E9492
:10011000DF060C94DA0D0C940000CF92DF92EF9280
:10012000FF92CF93DF93B091EA02A0E08111AB2F51
:100130008091EB0290E0880F991FAC014F565F4F02
:10014000C090F002D090F102E090F202F090F30241
:1001500030E020E0FA01C591D491E881B90190E046
:1001600080E0EB23EA130AC02F5F3F4F6C157D053B
:100170008E059F0578F36FEF7FEFCB01DF91CF9175
:10018000FF90EF90DF90CF90089596E0899FD00187
:100190001124AA50BD4F90967C936E935F9791E087
:1001A00091969C939197E0916303F09164039091F1
:1001B0006203992339F0309751F0811108C0809182
:1001C00012030994309719F05C968C91FACF089538
:1001D000833081F028F4813099F08230A9F00895BD
:1001E0008730A9F08830C9F08430B1F48091800064
:1001F0008F7D03C0809180008F7780938000089569
:1002000084B58F7784BD089584B58F7DFBCF8091B1
:10021000B0008F778093B00008958091B0008F7DFB
:10022000F9CFCF93DF93282F30E0F901E358FF4F48
:100230008491F901E155FF4FD491F901E556FF4F43
:10024000C491CC23A1F081110E94E800EC2FF0E0D2
:10025000EE0FFF1FEF56FF4FA591B491EC91ED23E8
:1002600081E090E009F480E0DF91CF91089580E093
:1002700090E0FACF1F93CF93DF93282F30E0F9015E
:10028000E358FF4F8491F901E155FF4FD491F901F3
:10029000E556FF4FC491CC23A9F0162F81110E947F
:1002A000E800EC2FF0E0EE0FFF1FED58FF4FA59197
:1002B000B4918FB7F894EC91111108C0D095DE235A
:1002C000DC938FBFDF91CF911F910895DE2BF8CF84
:1002D000CF93DF9390E0FC01E155FF4F24918556C9
:1002E0009F4FFC0184918823C9F090E0880F991FEB
:1002F000FC01E759FF4FA591B491FC01ED58FF4F68
:10030000C591D49161110DC09FB7F8948C9120953F
:1003100082238C938881282328839FBFDF91CF91EC
:100320000895623051F49FB7F8943C91822F8095E4
:1003300083238C93E8812E2BEFCF8FB7F894EC9129
:100340002E2B2C938FBFEACF3FB7F89480914202B7
:1003500090914302A0914402B091450226B5A89B1A
:1003600005C02F3F19F00196A11DB11D3FBFBA2F47
:10037000A92F982F8827BC01CD01620F711D811D07
:10038000911D42E0660F771F881F991F4A95D1F78C
:1003900008958F929F92AF92BF92CF92DF92EF9289
:1003A000FF924B015C010E94A4016B017C010E9441
:1003B000A4016C197D098E099F09683E734081056F
:1003C0009105A8F321E0821A9108A108B10888EEEE
:1003D000C80E83E0D81EE11CF11C81149104A10415
:1003E000B10429F7FF90EF90DF90CF90BF90AF90CE
:1003F0009F908F9008952FB7F89460913E0270916E
:100400003F0280914002909141022FBF0895CF9208
:10041000DF92EF92FF920F931F93CF93DF93CDB7AD
:10042000DEB7C054D1400FB6F894DEBF0FBECDBFCB
:100430000E94FB010091EC021091ED022091EE026E
:100440003091EF026B017C01C01AD10AE20AF30A73
:1004500097018601003D17402105310590F48091F8
:10046000F402C05CDE4F0FB6F894DEBF0FBECDBF06
:10047000DF91CF911F910F91FF90EF90DF90CF9080
:1004800008956093EC027093ED028093EE029093D6
:10049000EF021092E7021092E6021092E50210922B
:1004A000E4021092E30262E08091E8020E94680197
:1004B00061E070E080E090E00E94C90161E080911D
:1004C000E8020E94680160E08091E8020E943A011F
:1004D0008091E9028551823020F58BE291E101970C
:1004E000F1F762E08091E8020E9468018091F502D4
:1004F00090E08230910538F0880F991F880F991F7E
:1005000005970197F1F7F89480E00E948D006F3F06
:100510007F4F8F4F9F4F61F41092F402789480E0E8
:10052000A0CF64E170E080E090E00E94C901D9CFE3
:1005300081E00E948D006F3F7F4F8F4F9F4F61F38F
:100540008E010F5F1F4F6E012FEBC21A2EEFD20AE2
:10055000780180E00E948D00F701608371838283BF
:10056000938381E00E948D00F70164837583868305
:100570009783F8E0EF0EF11CEC14FD0451F778942A
:1005800030E020E0F801C080D180E280F380448137
:10059000558166817781FFEFCF16DF06EF06FF06F4
:1005A00031F04F3F8FEF58076807780719F4109222
:1005B000F402B5CFF90183E0F595E7958A95E1F767
:1005C000ED51FD4F8081880FC416D506E606F7066B
:1005D00010F180832F5F3F4F085F1F4F2832310596
:1005E00089F64091E7022091E3028091E402280F0E
:1005F0003327331F8091E502280F311D8091E602D9
:10060000820F932F911D99274817190681F681E0D3
:100610008093F40226CF8160DCCF0F931F93CF939A
:10062000DF93C82FD62F86E0C89FF0011124EA502F
:10063000FD4F11A2878D90A181309105F1F058F006
:1006400082309105F1F1039709F440C0DF91CF9119
:100650001F910F9108956623C9F361E070E08C2F1C
:100660000E94C5000E94FB0160934E0370934F03EC
:100670008093500390935103E9CF0E94FB010091B6
:100680004E0310914F032091500330915103AB0161
:10069000BC01401B510B620B730B80916003909166
:1006A0006103B0E0A0E084179507A607B70748F4F8
:1006B00062E070E08C2FDF91CF911F910F910C942D
:1006C000C50063E070E0D111C1CFF4CF70E060E00D
:1006D000F1CF862F642F0C946801862F642F0C9421
:1006E0003A01862F0C9411019091000189130BC0DF
:1006F000E8E6F0E0E4919FEF90930001E13049F0EB
:1007000028F0E23061F060E00C943A0110926E0043
:10071000FACF90916F009D7F90936F00F4CF9091EE
:1007200070009D7F9093700091E09093B000909145
:10073000B100987F94609093B1001092B300E3CF22
:10074000AF92BF92CF92DF92EF92FF920F931F93DF
:10075000CF93DF936C017B018B01040F151FEB011D
:100760005E01AE18BF08C017D10759F06991D601D4
:10077000ED91FC910190F081E02DC6010995892B46
:1007800079F7C501DF91CF911F910F91FF90EF9005
:10079000DF90CF90BF90AF900895FC01538D448DB2
:1007A000252F30E0842F90E0821B930B541710F01C
:1007B000CF96089501970895FC01918D828D981729
:1007C00061F0A28DAE0FBF2FB11D5D968C91928D01
:1007D0009F5F9F73928F90E008958FEF9FEF089532
:1007E000FC01918D828D981731F0828DE80FF11DFB
:1007F000858D90E008958FEF9FEF0895FC01918D16
:10080000228D892F90E0805C9F4F821B91098F730E
:100810009927089586E492E00E94FE0321E0892B47
:1008200009F420E0822F089580E090E0892B29F0E0
:100830000E940A0481110C9400000895FC01A48D0B
:10084000A80FB92FB11DA35ABF4F2C91848D90E0F2
:1008500001968F739927848FA689B7892C93A089D5
:10086000B1898C91837080648C93938D848D98135F
:1008700006C00288F389E02D80818F7D80830895F2
:10088000EF92FF920F931F93CF93DF93EC0181E0E0
:10089000888F9B8D8C8D98131AC0E889F989808187
:1008A00085FF15C09FB7F894EE89FF896083E889BA
:1008B000F98980818370806480839FBF81E090E0AC
:1008C000DF91CF911F910F91FF90EF900895F62E39
:1008D0000B8D10E00F5F1F4F0F731127E02E8C8DD3
:1008E0008E110CC00FB607FCFACFE889F989808118
:1008F00085FFF5CFCE010E941E04F1CFEB8DEC0FEA
:10090000FD2FF11DE35AFF4FF0829FB7F8940B8F34
:10091000EA89FB8980818062CFCFCF93DF93EC019E
:10092000888D8823B9F0AA89BB89E889F9898C91D7
:1009300085FD03C0808186FD0DC00FB607FCF7CF93
:100940008C9185FFF2CF808185FFEDCFCE010E9493
:100950001E04E9CFDF91CF910895FC0101900020A2
:10096000E9F73197AF01481B590BBC0186E492E0CF
:100970000C94A0030C94AD048F929F92AF92BF92FF
:10098000CF92DF92EF92FF920F931F93CF93DF935B
:10099000CDB7DEB7A1970FB6F894DEBF0FBECDBFBF
:1009A0006B017C01F7FE41C06DE286E492E00E949B
:1009B00040048C0122273327A9012C193D094E0937
:1009C0005F0919A2CE0181967C019AE0892E912CB3
:1009D000A12CB12CCA01B901A50194010E947D0D81
:1009E000605DF70162937F012115310541055105D5
:1009F00089F790E080E0309719F0CF010E94AD04B4
:100A0000800F911FA1960FB6F894DEBF0FBECDBF29
:100A1000DF91CF911F910F91FF90EF90DF90CF90DA
:100A2000BF90AF909F908F900895AC019B0119A249
:100A30008E010F5D1F4F8AE0C82ED12CE12CF12CC6
:100A4000CA01B901A70196010E947D0D605DF80100
:100A500062938F01211531054105510589F790E019
:100A600080E0309779F2CF010E94AD04CBCF1F9286
:100A70000F920FB60F9211242F933F938F939F9352
:100A8000AF93BF9380913E0290913F02A0914002AC
:100A9000B091410230913D0223E0230F2D3758F5EC
:100AA0000196A11DB11D20933D0280933E029093BB
:100AB0003F02A0934002B093410280914202909184
:100AC0004302A0914402B09145020196A11DB11DBF
:100AD0008093420290934302A0934402B093450254
:100AE000BF91AF919F918F913F912F910F900FBE2A
:100AF0000F901F90189526E8230F0296A11DB11D97
:100B0000D2CF1F920F920FB60F9211242F933F93C3
:100B10004F935F936F937F938F939F93AF93BF9305
:100B2000EF93FF9380912B0290912C02A0912D02C4
:100B3000B0912E02892B8A2B8B2BD1F1909126021A
:100B4000E0912702F091280280818927808380919B
:100B50002B0290912C02A0912D02B0912E0218161A
:100B600019061A061B069CF480912B0290912C0208
:100B7000A0912D02B0912E020197A109B109809395
:100B80002B0290932C02A0932D02B0932E02FF9182
:100B9000EF91BF91AF919F918F917F916F915F91F5
:100BA0004F913F912F910F900FBE0F901F9018956E
:100BB000809100010E947403EACF1F920F920FB63A
:100BC0000F9211242F933F934F935F936F937F93D3
:100BD0008F939F93AF93BF93EF93FF9386E492E03D
:100BE0000E941E04FF91EF91BF91AF919F918F9151
:100BF0007F916F915F914F913F912F910F900FBE19
:100C00000F901F9018951F920F920FB60F921124FC
:100C10002F938F939F93EF93FF93E0915602F09160
:100C200057028081E0915C02F0915D0282FD1BC061
:100C3000908180915F028F5F8F7320916002821795
:100C400041F0E0915F02F0E0EA5BFD4F958F809309
:100C50005F02FF91EF919F918F912F910F900FBEA7
:100C60000F901F9018958081F4CF10924902109236
:100C7000480288EE93E0A0E0B0E080934A029093AF
:100C80004B02A0934C02B0934D028AE191E0909305
:100C900047028093460285EC90E090935302809344
:100CA000520284EC90E0909355028093540280ECC1
:100CB00090E0909357028093560281EC90E09093DD
:100CC00059028093580282EC90E090935B028093EB
:100CD0005A0286EC90E090935D0280935C02109241
:100CE0005F021092600210926102109262021092F2
:100CF000F8021092FC021092FB021092FD028CE2AC
:100D000091E09093F7028093F602E2E1F3E0108223
:100D1000148213821582369683E0EE34F807B9F711
:100D200086E091E0909359038093580383E091E02B
:100D300090935B0380935A0384E080935C0383E089
:100D400080935D038AE091E090935703809356036C
:100D50008AE090E090935F0380935E0384EF91E0DC
:100D60009093610380936003109264031092630375
:100D70001092520310925303109254031092550391
:100D80001092620382E18093E8028BE08093E90293
:100D9000E1ECF0E0E491E093EA02EDEAF0E0E491C6
:100DA000E093EB0280E89EE3A0E0B0E08093F002E5
:100DB0009093F102A093F202B093F3020895CF93BF
:100DC000DF931F92CDB7DEB7789484B5826084BD7F
:100DD00084B5816084BD85B5826085BD85B581603F
:100DE00085BD80916E00816080936E0010928100BD
:100DF0008091810082608093810080918100816078
:100E00008093810080918000816080938000809138
:100E1000B10084608093B1008091B00081608093C4
:100E2000B00080917A00846080937A0080917A008B
:100E3000826080937A0080917A00816080937A004A
:100E400080917A00806880937A001092C100E091CE
:100E50005602F091570282E08083E0915202F091B5
:100E600053021082E0915402F09155028FEC80837E
:100E700010925E02E0915A02F0915B0286E080835C
:100E8000E0915802F0915902808180618083E09165
:100E90005802F0915902808188608083E091580265
:100EA000F0915902808180688083E0915802F0912E
:100EB000590280818F7D808362E08091E8020E94E8
:100EC00068010E94FB01605D774081099109609390
:100ED000EC027093ED028093EE029093EF0287E3B1
:100EE0008093F50261E08DE00E94680160E083E19B
:100EF0000E946801F2E32F2EF3E03F2E88248394B2
:100F0000912C8091010190910201892B71F083E174
:100F10000E9411018C0182E391E00E94BA04B801A1
:100F2000110F880B990B0E94BC0481E0809362032F
:100F30000E94FB010091520310915303209154032E
:100F400030915503AB01BC01401B510B620B730B7D
:100F500080915E0390915F03B0E0A0E08417950755
:100F6000A607B70708F024C110E080915C031817AA
:100F700060F4E0915803F0915903E10FF11D62E034
:100F800080810E9468011F5FF0CF712C80915D030A
:100F9000781608F063C0E72CF12CE0915A03F09129
:100FA0005B03EE0DFF1D61E080810E946801E0910E
:100FB0005A03F0915B03EE0DFF1D60E080810E94FB
:100FC0003A0181E090E0A0E0B0E0072C04C0880F77
:100FD000991FAA1FBB1F0A94D2F75C016C01C09431
:100FE000D094612C80915C03681608F5062D10E002
:100FF000E0915803F0915903E00FF11F80810E94A6
:1010000011010C5F1F4F000F111FF801EA50FD4F37
:10101000892B41F4808191818A299B299183808346
:101020006394E0CF808191818C219D21F7CFE09165
:101030005A03F0915B03EE0DFF1D61E080810E9479
:101040003A0180915A0390915B03E80EF91E60E02B
:10105000D7018C910E946801739498CF06EF12E03B
:101060007801F701878D90A1892B31F4148E8FEFD1
:101070009FEF968F858F11A296E0E90EF11C2E143A
:101080003F0479F7D12C80915C03D81608F053C047
:10109000C12CAD2CB12CAA0CBB1CD501A250BD4F4C
:1010A0005D0120915D03C21608F043C0F501608127
:1010B00071810C2C02C0769567950A94E2F7D29E56
:1010C000900111242C0D311DE6EFF2E080E0458DFA
:1010D000568D2417350709F436C38F5F36968A304C
:1010E000B1F760FF24C0E6EFF2E090E080E0448DCD
:1010F000411118C0E0915603F0915703E20FF31F1E
:10110000408156E0589FF001599FF00D1124EA509C
:10111000FD4F448F368F258F10A2178E61E00E94FD
:101120000D0305C0019636968A30910501F7C394E8
:10113000B8CFD394A8CFD12CD80191968C9181119E
:10114000D82E0A5F1F4FE016F106B1F70E94FB018F
:101150006093520370935303809354039093550309
:10116000DD2031F180911703882311F1809115035F
:10117000909116030197E1F4809112038983811104
:101180001BC08DE491E00E94BA040E9407028823EC
:1011900051F08091E9028C3009F4CFC008F070C0A2
:1011A0008B3009F487C060E070E080EC9FE7AAC054
:1011B000109262031982E5CFCE0101960E94A50B21
:1011C0002091240230912502F901EE0FFF1FE45E09
:1011D000FD4F880F991F059667E070E00E94690D2A
:1011E000918380832F5F3F4F309325022093240209
:1011F0002430310531F680911C0290911D02059733
:10120000B1F580911E0290911F02892B81F580918A
:10121000200290912102029751F580912202909133
:101220002302039721F5809101019091020101971A
:1012300089F48AE391E00E94BA048DE491E00E946F
:10124000BA0410920201109201011092250210922C
:10125000240297CF80E591E00E94BA048DE491E0EA
:101260000E94BA049092020180920101EECF80E6C2
:1012700091E00E94BA048DE491E00E94BA04E5CFA7
:101280008551823008F08FCF1091E502612F70E018
:10129000762F662766277F778091E602682B90E09D
:1012A00080E00E946E0C2DEC3CEC4CEC5DE30E9467
:1012B000FC0C5FC06091E50270E090E080E00E946D
:1012C0006E0C6B017C011091E60217FF0AC0AC01A5
:1012D0009B0160E070E080E89FEB0E94CB0B6B010C
:1012E0007C011F70612F70E090E080E00E94700C24
:1012F0002DEC3CEC4CEC5DE30E94FC0CA70196014C
:101300000E94CC0B0E94380C6B018B0170933C0245
:1013100060933B020E940702882351F08091E9020A
:101320008B3030F08D3048F18551823008F48EC01A
:1013300060E070E080EC9FE73CC01091E502612F17
:1013400070E090E080E00E946E0C6B017C01609187
:10135000E6026F7070E090E080E00E94700C2DEC6F
:101360003CEC4CEC5DE30E94FC0CA70196010E9452
:10137000CC0B17FFC7CF9058C5CF6091E40270E047
:1013800090E080E00E94700C2DEC3CEC4CEC5DE3B6
:101390000E94FC0C2B013C016091E30270E090E0A4
:1013A00080E00E94700C9B01AC01C301B2010E945D
:1013B000CC0B0E94380C2B0181E891E00E94BA040A
:1013C000B601DD0C880B990B0E94BC048FE891E0FC
:1013D0000E94BA04B201052C000C880B990B0E94E4
:1013E000BC048DE491E00E94AD04033311050CF4BC
:1013F000F3C0809100018330D9F5E8E6F0E0149164
:1014000017FDDDC061E083E00E946801112309F44B
:10141000A1C0123009F0B5C08091B100887F86600C
:101420008093B1008DE88093B3008FEF9FEFDC01D4
:1014300080932B0290932C02A0932D02B0932E0246
:1014400080917000826080937000B9C06091E30267
:101450007091E40276276727762790E080E00E946B
:101460006E0C2DEC3CEC4CEC5DE30E94FC0CA1CF2F
:101470008F3F09F0A4C083E080930001E8E6F0E02C
:1014800014911F3F09F49BC0113021F150F012302C
:1014900009F43EC017FD93C061E083E00E9468013B
:1014A000B8CF14BC15BC84B5826084BD85B581609D
:1014B00085BDEEE9F0E0E491F0E0EE0FFF1FED589E
:1014C000FF4F85919491E2EBF0E0E491E0932A02E2
:1014D00010E098CF109280001092810080918100DE
:1014E0008860809381008091810081608093810079
:1014F000EEE9F0E0E491F0E0EE0FFF1FED58FF4F52
:1015000085919491E2EBF0E0E491E09329027ACFA7
:101510001092B0001092B1008091B0008260809370
:10152000B0008091B10081608093B100EEE9F0E0FD
:10153000E491F0E0EE0FFF1FED58FF4F859194917D
:101540009093280280932702E2EBF0E0E491E0938D
:10155000260258CF85B5887F846085BD8DE887BD1C
:101560008FEF9FEFDC018093330290933402A093BE
:101570003502B093360280916E00826080936E00D7
:101580001EC0113009F580918100887F81608093B1
:1015900081008AE09EE890938900809388008FEF15
:1015A0009FEFDC0180932F0290933002A0933102D1
:1015B000B093320280916F00826080936F0010922E
:1015C0003A021092390213C0123021F01111F7CFF4
:1015D0008AE0C5CF8AE027CF0A3111050CF485C017
:1015E00083E00E94740390923A0280923902109232
:1015F0003802109237028091390290913A02892B79
:1016000009F48EC08CE991E00E94BA048DE491E067
:101610000E94BA048091370290913802892B09F414
:1016200082C086EC91E00E94BA048DE491E00E94B1
:10163000BA0483E480937C0080917A008064809374
:101640007A0080917A0086FDFCCF4091780050911D
:10165000790020E137E2DA010E94BE0D6B017C01C6
:10166000A0E0B4E0A41BB50B26E930E00E94BE0D5B
:101670009B01AC01C701B6010E949F0D6901890160
:1016800082EF91E00E94BA04B601DD0C880B990B41
:101690000E94BC048DE491E00E94BA040436110556
:1016A0000CF044C061E08DE00E94680161E08DE0D3
:1016B0000E943A0180E092E00E94BA048DE491E039
:1016C0000E94BA046CED75E080E090E00E94C901D0
:1016D00080E090E0892B09F414CC0E940A0488234E
:1016E00009F40CCC0E94000009CC073111054CF024
:1016F00090E5491651040CF073CF83E00E94740307
:101700005ECF02311105CCF783E00E947403109282
:101710003A021092390290923802809237026BCFCF
:1017200082EB91E071CF8DED91E07DCF8FE092E083
:101730000E94BA0461E08DE00E94680160E08DE0E3
:101740000E943A01BBCF6170EACCFC01882799273F
:10175000E89421912032E9F3293010F02E30C8F3BB
:101760002B3241F02D3239F4689404C00E94C30B2F
:10177000820F911D219120532A30C0F31EF49095C1
:1017800081959F4F08957AE0979F902D879F802D98
:10179000910D112408955058BB27AA270E94E30BEE
:1017A0000C94C20C0E94B40C38F00E94BB0C20F0C8
:1017B00039F49F3F19F426F40C94B10C0EF4E09523
:1017C000E7FB0C94AB0CE92F0E94D30C58F3BA172B
:1017D000620773078407950720F079F4A6F50C9447
:1017E000F50C0EF4E0950B2EBA2FA02D0B01B901CC
:1017F00090010C01CA01A0011124FF27591B99F087
:10180000593F50F4503E68F11A16F040A22F232F92
:10181000342F4427585FF3CF469537952795A795E2
:10182000F0405395C9F77EF41F16BA0B620B730B89
:10183000840BBAF09150A1F0FF0FBB1F661F771FFA
:10184000881FC2F70EC0BA0F621F731F841F48F4AF
:10185000879577956795B795F7959E3F08F0B0CF38
:101860009395880F08F09927EE0F9795879508951F
:101870000E943F0C6894B1110C94F60C08950E94DC
:10188000DB0C88F09F5798F0B92F9927B751B0F02B
:10189000E1F0660F771F881F991F1AF0BA95C9F7F4
:1018A00014C0B13091F00E94F50CB1E008950C9491
:1018B000F50C672F782F8827B85F39F0B93FCCF344
:1018C000869577956795B395D9F73EF49095809571
:1018D000709561957F4F8F4F9F4F0895E89409C091
:1018E00097FB3EF490958095709561957F4F8F4F53
:1018F0009F4F9923A9F0F92F96E9BB279395F69569
:10190000879577956795B795F111F8CFFAF4BB0FE6
:1019100011F460FF1BC06F5F7F4F8F4F9F4F16C04A
:10192000882311F096E911C0772321F09EE8872FD4
:10193000762F05C0662371F096E8862F70E060E090
:101940002AF09A95660F771F881FDAF7880F969509
:10195000879597F9089597F99F6780E870E060E0B0
:1019600008959FEF80EC089500240A941616170638
:1019700018060906089500240A9412161306140680
:1019800005060895092E0394000C11F4882352F0E3
:10199000BB0F40F4BF2B11F460FF04C06F5F7F4F9B
:1019A0008F4F9F4F089557FD9058440F551F59F082
:1019B0005F3F71F04795880F97FB991F61F09F3F3C
:1019C00079F087950895121613061406551FF2CF65
:1019D0004695F1DF08C0161617061806991FF1CFB5
:1019E00086957105610508940895E894BB276627DC
:1019F0007727CB0197F908950E940F0D0C94C20C24
:101A00000E94B40C38F00E94BB0C20F0952311F01A
:101A10000C94AB0C0C94B10C11240C94F60C0E9499
:101A2000D30C70F3959FC1F3950F50E0551F629F43
:101A3000F001729FBB27F00DB11D639FAA27F00D27
:101A4000B11DAA1F649F6627B00DA11D661F829F4E
:101A50002227B00DA11D621F739FB00DA11D621F33
:101A6000839FA00D611D221F749F3327A00D611D50
:101A7000231F849F600D211D822F762F6A2F112432
:101A80009F5750409AF0F1F088234AF0EE0FFF1F65
:101A9000BB1F661F771F881F91505040A9F79E3FBC
:101AA000510580F00C94AB0C0C94F60C5F3FE4F302
:101AB000983ED4F3869577956795B795F795E79512
:101AC0009F5FC1F7FE2B880F911D9695879597F91B
:101AD0000895AA1BBB1B51E107C0AA1FBB1FA61775
:101AE000B70710F0A61BB70B881F991F5A95A9F7C7
:101AF00080959095BC01CD010895A1E21A2EAA1BF4
:101B0000BB1BFD010DC0AA1FBB1FEE1FFF1FA217AD
:101B1000B307E407F50720F0A21BB30BE40BF50BAA
:101B2000661F771F881F991F1A9469F76095709533
:101B3000809590959B01AC01BD01CF010895052EC4
:101B400097FB1EF400940E94B60D57FD07D00E942B
:101B50007D0D07FC03D04EF40C94B60D50954095C6
:101B6000309521953F4F4F4F5F4F08959095809549
:101B7000709561957F4F8F4F9F4F08950E94CB0DB9
:101B8000B7FF0895821B930B0895EE0FFF1F05907A
:101B9000F491E02D0994A29FB001B39FC001A39FCF
:101BA000700D811D1124911DB29F700D811D112496
:101BB000911D0895F894FFCFFF01000605040C0B5A
:101BC000080731323334353637383923302A0000AC
:101BD00000004004A003CD038D04FE03DC03F003EA
:101BE0000000000069036D03710376616C75653A4E
:101BF0002000416C61726D6120646573616374697A
:101C000076616461000D0A00416C61726D61206152
:101C10006374697661646100496E677265736520FB
:101C20006C6120636F6E74726173656E61206E7596
:101C30006576616D656E74650054656D7065726181
:101C4000747572613A2000202D2048756D656461BD
:101C5000643A200056656E74696C61646F72206529
:101C60006E63656E6469646F2E0056656E74696C90
:101C700061646F72206170616761646F2E004361FF
:101C80006C6566616363696F6E20656E63656E6423
:101C90006964612E0043616C6566616363696F6EA0
:101CA00020617061676164612E00496C756D696EB9
:101CB0006163696F6E3A20004C656420656E6365F0
:101CC0006E6469646F2E004C6564206170616761A9
:041CD000646F2E000F
:107E0000112484B714BE81FFF0D085E080938100F7
:107E100082E08093C00088E18093C10086E0809377
:107E2000C20080E18093C4008EE0C9D0259A86E02C
:107E300020E33CEF91E0309385002093840096BBD3
:107E4000B09BFECF1D9AA8958150A9F7CC24DD24C4
:107E500088248394B5E0AB2EA1E19A2EF3E0BF2EE7
:107E6000A2D0813461F49FD0082FAFD0023811F036
:107E7000013811F484E001C083E08DD089C08234E0
:107E800011F484E103C0853419F485E0A6D080C0E4
:107E9000853579F488D0E82EFF2485D0082F10E0AE
:107EA000102F00270E291F29000F111F8ED06801E7
:107EB0006FC0863521F484E090D080E0DECF843638
:107EC00009F040C070D06FD0082F6DD080E0C81688
:107ED00080E7D80618F4F601B7BEE895C0E0D1E017
:107EE00062D089930C17E1F7F0E0CF16F0E7DF06D8
:107EF00018F0F601B7BEE89568D007B600FCFDCFD4
:107F0000A601A0E0B1E02C9130E011968C91119780
:107F100090E0982F8827822B932B1296FA010C0160
:107F200087BEE89511244E5F5F4FF1E0A038BF0790
:107F300051F7F601A7BEE89507B600FCFDCF97BE46
:107F4000E89526C08437B1F42ED02DD0F82E2BD052
:107F50003CD0F601EF2C8F010F5F1F4F84911BD097
:107F6000EA94F801C1F70894C11CD11CFA94CF0C13
:107F7000D11C0EC0853739F428D08EE10CD085E9AC
:107F80000AD08FE07ACF813511F488E018D01DD067
:107F900080E101D065CF982F8091C00085FFFCCF94
:107FA0009093C60008958091C00087FFFCCF809118
:107FB000C00084FD01C0A8958091C6000895E0E648
:107FC000F0E098E1908380830895EDDF803219F02E
:107FD00088E0F5DFFFCF84E1DECF1F93182FE3DFCA
:107FE0001150E9F7F2DF1F91089580E0E8DFEE27F6
:047FF000FF270994CA
:027FFE00040479
:00000001FF
