:100000000C9462000C948A000C948A000C948A0070
:100010000C948A000C948A000C948A000C948A0038
:100020000C948A000C948A000C948A000C948A0028
:100030000C948A000C948A000C948A000C948A0018
:100040000C94F4040C948A000C9464050C943E0502
:100050000C948A000C948A000C948A000C948A00F8
:100060000C948A000C948A000000000024002700F1
:100070002A0000000000250028002B0000000008D6
:10008000000201000003040700000000000000005F
:1000900000000000230026002900040404040404D6
:1000A0000404020202020202030303030303010227
:1000B00004081020408001020408102001020408F6
:1000C0001020960511241FBECFEFD8E0DEBFCDBFB4
:1000D00012E0A0E0B1E0EEE7F7E102C005900D927A
:1000E000A031B107D9F723E0A0E1B2E001C01D9231
:1000F000AC34B207E1F710E0C2E6D0E004C02197CB
:10010000FE010E94B70BC136D107C9F70E94400615
:100110000C94BD0B0C940000CF92DF92EF92FF92F3
:10012000CF93DF93B091D102A0E08111AB2F8091EA
:10013000D20290E0880F991FAC0140575F4FC090EA
:10014000D702D090D802E090D902F090DA0230E0E5
:1001500020E0FA01C591D491E881B90190E080E0F6
:10016000EB23EA130AC02F5F3F4F6C157D058E0508
:100170009F0578F36FEF7FEFCB01DF91CF91FF9079
:10018000EF90DF90CF90089596E0899FD0011124E1
:10019000A352BD4F90967C936E935F9791E091969A
:1001A0009C939197E0914A03F0914B0390914903FE
:1001B000992339F0309751F0811108C08091F902EC
:1001C0000994309719F05C968C91FACF089583309A
:1001D00081F028F4813099F08230A9F008958730B9
:1001E000A9F08830C9F08430B1F4809180008F7D0F
:1001F00003C0809180008F7780938000089584B53C
:100200008F7784BD089584B58F7DFBCF8091B0003A
:100210008F778093B00008958091B0008F7DF9CFE3
:10022000CF93DF93282F30E0F901E458FF4F8491FA
:10023000F901E255FF4FD491F901E656FF4FC49101
:10024000CC23A1F081110E94E700EC2FF0E0EE0F2B
:10025000FF1FE057FF4FA591B491EC91ED2381E092
:1002600090E009F480E0DF91CF91089580E090E084
:10027000FACF1F93CF93DF93282F30E0F901E45892
:10028000FF4F8491F901E255FF4FD491F901E656F1
:10029000FF4FC491CC23A9F0162F81110E94E700D3
:1002A000EC2FF0E0EE0FFF1FEE58FF4FA591B49139
:1002B0008FB7F894EC91111108C0D095DE23DC9330
:1002C0008FBFDF91CF911F910895DE2BF8CFCF9391
:1002D000DF9390E0FC01E255FF4F249186569F4F3B
:1002E000FC0184918823C9F090E0880F991FFC01DC
:1002F000E859FF4FA591B491FC01EE58FF4FC5910D
:10030000D49161110DC09FB7F8948C9120958223F0
:100310008C938881282328839FBFDF91CF910895F4
:10032000623051F49FB7F8943C91822F80958323DB
:100330008C93E8812E2BEFCF8FB7F894EC912E2B76
:100340002C938FBFEACF3FB7F89480912902909108
:100350002A02A0912B02B0912C0226B5A89B05C0C1
:100360002F3F19F00196A11DB11D3FBFBA2FA92F34
:10037000982F8827BC01CD01620F711D811D911D31
:1003800042E0660F771F881F991F4A95D1F708959D
:100390008F929F92AF92BF92CF92DF92EF92FF9295
:1003A0004B015C010E94A3016B017C010E94A3012F
:1003B0006C197D098E099F09683E7340810591057E
:1003C000A8F321E0821A9108A108B10888EEC80EAE
:1003D00083E0D81EE11CF11C81149104A104B10436
:1003E00029F7FF90EF90DF90CF90BF90AF909F9054
:1003F0008F9008952FB7F89460912502709126028E
:1004000080912702909128022FBF0895CF92DF920A
:10041000EF92FF920F931F93CF93DF93CDB7DEB789
:10042000C054D1400FB6F894DEBF0FBECDBF0E94BE
:10043000FA010091D3021091D4022091D50230919B
:10044000D6026B017C01C01AD10AE20AF30A9701B5
:100450008601003D17402105310590F48091DB02B3
:10046000C05CDE4F0FB6F894DEBF0FBECDBFDF918C
:10047000CF911F910F91FF90EF90DF90CF90089553
:100480006093D3027093D4028093D5029093D602E6
:100490001092CE021092CD021092CC021092CB029A
:1004A0001092CA0262E08091CF020E94670161E06F
:1004B00070E080E090E00E94C80161E08091CF028E
:1004C0000E94670160E08091CF020E943901809113
:1004D000D0028551823020F58BE291E10197F1F74E
:1004E00062E08091CF020E9467018091DC0290E07F
:1004F0008230910538F0880F991F880F991F059752
:100500000197F1F7F89480E00E948C006F3F7F4FD5
:100510008F4F9F4F61F41092DB02789480E0A0CF60
:1005200064E170E080E090E00E94C801D9CF81E0F2
:100530000E948C006F3F7F4F8F4F9F4F61F38E0162
:100540000F5F1F4F6E012FEBC21A2EEFD20A7801F8
:1005500080E00E948C00F701608371838283938323
:1005600081E00E948C00F701648375838683978302
:10057000F8E0EF0EF11CEC14FD0451F7789430E034
:1005800020E0F801C080D180E280F3804481558171
:1005900066817781FFEFCF16DF06EF06FF0631F0A9
:1005A0004F3F8FEF58076807780719F41092DB0266
:1005B000B5CFF90183E0F595E7958A95E1F7E65324
:1005C000FD4F8081880FC416D506E606F70610F1A8
:1005D00080832F5F3F4F085F1F4F2832310589F618
:1005E0004091CE022091CA028091CB02280F33277E
:1005F000331F8091CC02280F311D8091CD02820FD4
:10060000932F911D99274817190681F681E0809351
:10061000DB0226CF8160DCCF0F931F93CF93DF9354
:10062000C82FD62F86E0C89FF0011124E352FD4F5A
:1006300011A2878D90A181309105F1F058F08230A0
:100640009105F1F1039709F440C0DF91CF911F911B
:100650000F9108956623C9F361E070E08C2F0E942A
:10066000C4000E94FA0160933503709336038093AF
:10067000370390933803E9CF0E94FA0100913503C4
:10068000109136032091370330913803AB01BC0140
:10069000401B510B620B730B8091470390914803F1
:1006A000B0E0A0E084179507A607B70748F462E01A
:1006B00070E08C2FDF91CF911F910F910C94C400AB
:1006C00063E070E0D111C1CFF4CF70E060E0F1CF12
:1006D000862F642F0C946701862F642F0C943901A8
:1006E000862F0C941001AF92BF92CF92DF92EF92BF
:1006F000FF920F931F93CF93DF936C017B018B01CC
:10070000040F151FEB015E01AE18BF08C017D1071B
:1007100059F06991D601ED91FC910190F081E02DA5
:10072000C6010995892B79F7C501DF91CF911F91FA
:100730000F91FF90EF90DF90CF90BF90AF90089512
:10074000FC01538D448D252F30E0842F90E0821BD7
:10075000930B541710F0CF96089501970895FC015C
:10076000918D828D981761F0A28DAE0FBF2FB11DB4
:100770005D968C91928D9F5F9F73928F90E008950C
:100780008FEF9FEF0895FC01918D828D981731F0C6
:10079000828DE80FF11D858D90E008958FEF9FEF1A
:1007A0000895FC01918D228D892F90E0805C9F4FF0
:1007B000821B91098F73992708958DE292E00E9420
:1007C000D10321E0892B09F420E0822F089580E0F5
:1007D00090E0892B29F00E94DD0381110C94000028
:1007E0000895FC01A48DA80FB92FB11DA35ABF4FC6
:1007F0002C91848D90E001968F739927848FA68920
:10080000B7892C93A089B1898C91837080648C9373
:10081000938D848D981306C00288F389E02D808122
:100820008F7D80830895EF92FF920F931F93CF9354
:10083000DF93EC0181E0888F9B8D8C8D98131AC01B
:10084000E889F989808185FF15C09FB7F894EE8902
:10085000FF896083E889F98980818370806480835F
:100860009FBF81E090E0DF91CF911F910F91FF90AA
:10087000EF900895F62E0B8D10E00F5F1F4F0F7352
:100880001127E02E8C8D8E110CC00FB607FCFACF0D
:10089000E889F989808185FFF5CFCE010E94F103B7
:1008A000F1CFEB8DEC0FFD2FF11DE35AFF4FF082DE
:1008B0009FB7F8940B8FEA89FB8980818062CFCF44
:1008C000CF93DF93EC01888D8823B9F0AA89BB8987
:1008D000E889F9898C9185FD03C0808186FD0DC072
:1008E0000FB607FCF7CF8C9185FFF2CF808185FF93
:1008F000EDCFCE010E94F103E9CFDF91CF910895B2
:10090000FC0101900020E9F73197AF01481B590B1A
:10091000BC018DE292E00C9473038F929F92AF9290
:10092000BF920F931F93CF93DF93CDB7DEB7A197FD
:100930000FB6F894DEBF0FBECDBF19A2423008F447
:100940004AE08E010F5D1F4F842E912CB12CA12CFB
:10095000A50194010E94950BE62FB901CA01EA3066
:10096000F4F4E05DD801EE938D01232B242B252B8D
:1009700079F790E080E0109719F0CD010E94800493
:10098000A1960FB6F894DEBF0FBECDBFDF91CF9119
:100990001F910F91BF90AF909F908F900895E95C49
:1009A000E1CFCF92DF92EF92FF92CF93DF936B0173
:1009B0007C016DE28DE292E00E941304EC01662757
:1009C0007727CB016C197D098E099F094AE00E94A7
:1009D0008D048C0F9D1FDF91CF91FF90EF90DF90E2
:1009E000CF9008950C9480041F920F920FB60F922F
:1009F00011242F933F938F939F93AF93BF93809135
:100A0000250290912602A0912702B09128023091F0
:100A1000240223E0230F2D3758F50196A11DB11DA7
:100A2000209324028093250290932602A09327020C
:100A3000B09328028091290290912A02A0912B0262
:100A4000B0912C020196A11DB11D809329029093B3
:100A50002A02A0932B02B0932C02BF91AF919F91D9
:100A60008F913F912F910F900FBE0F901F9018956F
:100A700026E8230F0296A11DB11DD2CF1F920F921F
:100A80000FB60F9211242F933F934F935F936F9361
:100A90007F938F939F93AF93BF93EF93FF938DE2D9
:100AA00092E00E94F103FF91EF91BF91AF919F916E
:100AB0008F917F916F915F914F913F912F910F9007
:100AC0000FBE0F901F9018951F920F920FB60F92A6
:100AD00011242F938F939F93EF93FF93E0913D0207
:100AE000F0913E028081E0914302F091440282FD48
:100AF0001BC09081809146028F5F8F7320914702C7
:100B0000821741F0E0914602F0E0E35DFD4F958FE2
:100B100080934602FF91EF919F918F912F910F90BB
:100B20000FBE0F901F9018958081F4CF1092300265
:100B300010922F0288EE93E0A0E0B0E080933102A3
:100B400090933202A0933302B093340287E191E094
:100B500090932E0280932D0285EC90E090933A02C0
:100B60008093390284EC90E090933C0280933B02A6
:100B700080EC90E090933E0280933D0281EC90E007
:100B80009093400280933F0282EC90E09093420267
:100B90008093410286EC90E090934402809343025C
:100BA0001092460210924702109248021092490297
:100BB0001092DF021092E3021092E2021092E4021D
:100BC00089E291E09093DE028093DD02E9EFF2E0AA
:100BD0001082148213821582369683E0E533F8077B
:100BE000B9F783E091E09093400380933F0380E066
:100BF00091E0909342038093410384E08093430308
:100C000083E08093440387E091E090933E038093D8
:100C10003D038AE090E0909346038093450384EF80
:100C200091E0909348038093470310924B031092F6
:100C30004A031092390310923A0310923B03109228
:100C40003C031092490382E18093CF028BE08093B2
:100C5000D002E0ECF0E0E491E093D102ECEAF0E0C5
:100C6000E491E093D20280E89EE3A0E0B0E08093BC
:100C7000D7029093D802A093D902B093DA020895D4
:100C8000CF93DF931F92CDB7DEB7789484B582609F
:100C900084BD84B5816084BD85B5826085BD85B520
:100CA000816085BD80916E00816080936E0010929E
:100CB0008100809181008260809381008091810019
:100CC00081608093810080918000816080938000AA
:100CD0008091B10084608093B1008091B000816008
:100CE0008093B00080917A00846080937A00809134
:100CF0007A00826080937A0080917A00816080938C
:100D00007A0080917A00806880937A001092C10006
:100D1000E0913D02F0913E0282E08083E091390251
:100D2000F0913A021082E0913B02F0913C028FEC8C
:100D3000808310924502E0914102F091420286E0E8
:100D40008083E0913F02F091400280818061808346
:100D5000E0913F02F0914002808188608083E091C1
:100D60003F02F0914002808180688083E0913F02E1
:100D7000F091400280818F7D808362E08091CF027C
:100D80000E9467010E94FA01605D77408109910924
:100D90006093D3027093D4028093D5029093D602CD
:100DA00087E38093DC02412C512C32014394AA2426
:100DB000A394B12C81E0809349030E94FA01009131
:100DC000390310913A0320913B0330913C03AB016E
:100DD000BC01401B510B620B730B8091450390913A
:100DE0004603B0E0A0E084179507A607B70708F010
:100DF00023C110E080914303181760F4E0913F0392
:100E0000F0914003E10FF11D62E080810E946701D3
:100E10001F5FF0CF312C80914403381608F061C079
:100E2000E32CF12CE0914103F0914203EE0DFF1D04
:100E300061E080810E946701E0914103F0914203EB
:100E4000EE0DFF1D60E080810E943901D301C201D7
:100E5000032C04C0880F991FAA1FBB1F0A94D2F746
:100E60004C016C01C094D094212C8091430328162E
:100E700008F5022D10E0E0913F03F0914003E00FF0
:100E8000F11F80810E9410010C5F1F4F000F111F86
:100E9000F801E352FD4F892B41F48081918188292B
:100EA0009929918380832394E0CF808191818C2143
:100EB0009D21F7CFE0914103F0914203EE0DFF1D1C
:100EC00061E080810E943901809141039091420349
:100ED000E80EF91E60E0F70180810E9467013394FB
:100EE0009ACF0DED12E07801F701878D90A1892B43
:100EF00031F4148E8FEF9FEF968F858F11A296E0BD
:100F0000E90EF11CE9E1F3E0EE15FF0569F7D12CDC
:100F100080914303D81608F053C0C12C8D2C912C1E
:100F2000880C991CC4018B519D4F4C0120914403A6
:100F3000C21608F043C0F401608171810C2C02C01C
:100F4000769567950A94E2F7D29E900111242C0DB4
:100F5000311DEDEDF2E080E0458D568D241735070B
:100F600009F409C28F5F36968A30B1F760FF24C05A
:100F7000EDEDF2E090E080E0448D411118C0E09189
:100F80003D03F0913E03E20FF31F408156E0589F6E
:100F9000F001599FF00D1124E352FD4F448F368F1D
:100FA000258F10A2178E61E00E940C0305C00196E8
:100FB00036968A30910501F7C394B8CFD394A8CF61
:100FC000D12CF80181A18111D82E0A5F1F4F0E1577
:100FD0001F05B9F70E94FA016093390370933A0331
:100FE00080933B0390933C03DD2031F18091FE021E
:100FF000882311F18091FC029091FD020197E1F4A8
:101000008091F902898381111BC082E491E00E94E2
:10101000F2040E940602882351F08091D0028C30A5
:1010200009F4CDC008F070C08B3009F487C060E0CF
:1010300070E080EC9FE7AAC0109249031982E5CFC7
:10104000CE0101960E94BD09209122023091230217
:10105000F901EE0FFF1FE65EFD4F880F991F059601
:1010600067E070E00E94810B918380832F5F3F4F88
:1010700030932302209322022430310531F68091EF
:101080001A0290911B020597B1F580911C02909174
:101090001D02892B81F580911E0290911F020297FB
:1010A00051F58091200290912102039721F58091C2
:1010B000180290911902019789F48FE291E00E9441
:1010C000F20482E491E00E94F2041092190210925C
:1010D0001802109223021092220297CF85E491E029
:1010E0000E94F20482E491E00E94F204B09219029C
:1010F000A0921802EECF85E591E00E94F20482E40E
:1011000091E00E94F204E5CF8551823008F08FCF44
:101110001091CC02612F70E0762F662766277F77CB
:101120008091CD02682B90E080E00E94860A2DEC31
:101130003CEC4CEC5DE30E94140B5DC06091CC0272
:1011400070E090E080E00E94860A6B017C011091C3
:10115000CD0217FF0AC0AC019B0160E070E080E89F
:101160009FEB0E94E3096B017C011F70612F70E00F
:1011700090E080E00E94880A2DEC3CEC4CEC5DE3B2
:101180000E94140BA70196010E94E4090E94500AD4
:1011900070931702609316020E940602882351F092
:1011A0008091D0028B3030F08D3048F18551823003
:1011B00008F4B3C060E070E080EC9FE73CC01091A1
:1011C000CC02612F70E090E080E00E94860A6B0103
:1011D0007C016091CD026F7070E090E080E00E9431
:1011E000880A2DEC3CEC4CEC5DE30E94140BA7014B
:1011F00096010E94E40917FFC9CF9058C7CF6091AC
:10120000CB0270E090E080E00E94880A2DEC3CEC7C
:101210004CEC5DE30E94140B6B017C016091CA02EF
:1012200070E090E080E00E94880A9B01AC01C70159
:10123000B6010E94E4090E94500A7093150260935F
:10124000140286E791E00E94F20460911602709108
:101250001702072E000C880B990B97FF70C00E9495
:10126000D10484E891E00E94F2046091140270912C
:101270001502072E000C880B990B97FF64C00E9483
:10128000D10482E491E00E94800480911402909144
:101290001502833391050CF05AC0B0921302A0924C
:1012A0001202809116029091170249970CF458C0CF
:1012B000B0921102A092100280911202909113023A
:1012C000892B09F452C081E991E00E94F20482E482
:1012D00091E00E94F2048091100290911102892BFA
:1012E00009F446C08AEC91E00E94F20482E491E0A5
:1012F0000E94F2046CED75E080E090E00E94C8016D
:1013000080E090E0892B09F455CD0E94DD0388230D
:1013100009F450CD0E9400004ACD6091CA0270913C
:10132000CB0276276727762790E080E00E94860A26
:101330002DEC3CEC4CEC5DE30E94140B7CCF4AE0BE
:101340000E948D048ECF4AE00E948D049ACF8B3488
:1013500091050CF4A6CF1092130210921202A1CFA5
:101360001092110210921002A7CF8CEA91E0ADCF3B
:101370008BEE91E0B9CF617017CEFC0188279927D9
:10138000E89421912032E9F3293010F02E30C8F38F
:101390002B3241F02D3239F4689404C00E94DB09ED
:1013A000820F911D219120532A30C0F31EF4909595
:1013B00081959F4F08957AE0979F902D879F802D6C
:1013C000910D112408955058BB27AA270E94FB09AC
:1013D0000C94DA0A0E94CC0A38F00E94D30A20F05A
:1013E00039F49F3F19F426F40C94C90A0EF4E095E1
:1013F000E7FB0C94C30AE92F0E94EB0A58F3BA17D3
:10140000620773078407950720F079F4A6F50C941A
:101410000D0B0EF4E0950B2EBA2FA02D0B01B90188
:1014200090010C01CA01A0011124FF27591B99F05A
:10143000593F50F4503E68F11A16F040A22F232F66
:10144000342F4427585FF3CF469537952795A795B6
:10145000F0405395C9F77EF41F16BA0B620B730B5D
:10146000840BBAF09150A1F0FF0FBB1F661F771FCE
:10147000881FC2F70EC0BA0F621F731F841F48F483
:10148000879577956795B795F7959E3F08F0B0CF0C
:101490009395880F08F09927EE0F979587950895F3
:1014A0000E94570A6894B1110C940E0B08950E9483
:1014B000F30A88F09F5798F0B92F9927B751B0F0E9
:1014C000E1F0660F771F881F991F1AF0BA95C9F7C8
:1014D00014C0B13091F00E940D0BB1E008950C944E
:1014E0000D0B672F782F8827B85F39F0B93FCCF301
:1014F000869577956795B395D9F73EF49095809545
:10150000709561957F4F8F4F9F4F0895E89409C064
:1015100097FB3EF490958095709561957F4F8F4F26
:101520009F4F9923A9F0F92F96E9BB279395F6953C
:10153000879577956795B795F111F8CFFAF4BB0FBA
:1015400011F460FF1BC06F5F7F4F8F4F9F4F16C01E
:10155000882311F096E911C0772321F09EE8872FA8
:10156000762F05C0662371F096E8862F70E060E064
:101570002AF09A95660F771F881FDAF7880F9695DD
:10158000879597F9089597F99F6780E870E060E084
:1015900008959FEF80EC089500240A94161617060C
:1015A00018060906089500240A9412161306140654
:1015B00005060895092E0394000C11F4882352F0B7
:1015C000BB0F40F4BF2B11F460FF04C06F5F7F4F6F
:1015D0008F4F9F4F089557FD9058440F551F59F056
:1015E0005F3F71F04795880F97FB991F61F09F3F10
:1015F00079F087950895121613061406551FF2CF39
:101600004695F1DF08C0161617061806991FF1CF88
:1016100086957105610508940895E894BB276627AF
:101620007727CB0197F908950E94270B0C94DA0ACB
:101630000E94CC0A38F00E94D30A20F0952311F0C2
:101640000C94C30A0C94C90A11240C940E0B0E942A
:10165000EB0A70F3959FC1F3950F50E0551F629F01
:10166000F001729FBB27F00DB11D639FAA27F00DFB
:10167000B11DAA1F649F6627B00DA11D661F829F22
:101680002227B00DA11D621F739FB00DA11D621F07
:10169000839FA00D611D221F749F3327A00D611D24
:1016A000231F849F600D211D822F762F6A2F112406
:1016B0009F5750409AF0F1F088234AF0EE0FFF1F39
:1016C000BB1F661F771F881F91505040A9F79E3F90
:1016D000510580F00C94C30A0C940E0B5F3FE4F3A9
:1016E000983ED4F3869577956795B795F795E795E6
:1016F0009F5FC1F7FE2B880F911D9695879597F9EF
:101700000895AA1BBB1B51E107C0AA1FBB1FA61748
:10171000B70710F0A61BB70B881F991F5A95A9F79A
:1017200080959095BC01CD010895A1E21A2EAA1BC7
:10173000BB1BFD010DC0AA1FBB1FEE1FFF1FA21781
:10174000B307E407F50720F0A21BB30BE40BF50B7E
:10175000661F771F881F991F1A9469F76095709507
:10176000809590959B01AC01BD01CF010895EE0FCE
:0E177000FF1F0590F491E02D0994F894FFCF2F
:10177E000605040C0B080731323334353637383949
:10178E0023302A0000000013047303A0036004D169
:10179E0003AF03C3030000000068036C0370034132
:1017AE006C61726D612064657361637469766164E6
:1017BE0061000D0A00416C61726D61206163746994
:1017CE007661646100496E6772657365206C612095
:1017DE00636F6E74726173656E61206E756576618E
:1017EE006D656E74650054656D70657261747572A9
:1017FE00613A2000202D2048756D656461643A20A1
:10180E000053697374656D61206465207269656744
:10181E006F20616374697661646F2E00536973740F
:10182E00656D6120646520726965676F20646573FC
:10183E00616374697661646F2E0053697374656DAC
:10184E00612064652076656E74696C6163696F6E84
:10185E0020616374697661646F2E005369737465D9
:10186E006D612064652076656E74696C6163696F65
:10187E006E20646573616374697661646F2E000017
:00000001FF
