:100000000C9463000C948B000C948B000C948B006C
:100010000C948B000C948B000C948B000C94620657
:100020000C948B000C948B000C948B000C948B0024
:100030000C948B000C948B000C948B000C948B0014
:100040000C9418060C948B000C94E4060C94BE06D9
:100050000C948B000C948B000C948B000C948B00F4
:100060000C948B000C948B000200000000240027ED
:10007000002A0000000000250028002B00000000DE
:100080000800020100000304070000000000000057
:1000900000000000002300260029000404040404DA
:1000A0000404040202020202020303030303030125
:1000B00002040810204080010204081020010204FC
:1000C00008102000160711241FBECFEFD8E0DEBFB6
:1000D000CDBF12E0A0E0B1E0E2E3FCE102C0059098
:1000E0000D92A231B107D9F723E0A2E1B2E001C03D
:1000F0001D92A336B207E1F710E0C3E6D0E004C0DA
:100100002197FE010E94020EC236D107C9F70E9454
:10011000C0070C94170E0C940000CF92DF92EF9260
:10012000FF92CF93DF93B091E802A0E08111AB2F53
:100130008091E90290E0880F991FAC014F565F4F04
:10014000C090EE02D090EF02E090F002F090F10249
:1001500030E020E0FA01C591D491E881B90190E046
:1001600080E0EB23EA130AC02F5F3F4F6C157D053B
:100170008E059F0578F36FEF7FEFCB01DF91CF9175
:10018000FF90EF90DF90CF90089596E0899FD00187
:100190001124AC50BD4F90967C936E935F9791E085
:1001A00091969C939197E0916103F09162039091F5
:1001B0006003992339F0309751F0811108C0809184
:1001C00010030994309719F05C968C91FACF08953A
:1001D000833081F028F4813099F08230A9F00895BD
:1001E0008730A9F08830C9F08430B1F48091800064
:1001F0008F7D03C0809180008F7780938000089569
:1002000084B58F7784BD089584B58F7DFBCF8091B1
:10021000B0008F778093B00008958091B0008F7DFB
:10022000F9CFCF93DF93282F30E0F901E358FF4F48
:100230008491F901E155FF4FD491F901E556FF4F43
:10024000C491CC23A1F081110E94E800EC2FF0E0D2
:10025000EE0FFF1FEF56FF4FA591B491EC91ED23E8
:1002600081E090E009F480E0DF91CF91089580E093
:1002700090E0FACF1F93CF93DF93282F30E0F9015E
:10028000E358FF4F8491F901E155FF4FD491F901F3
:10029000E556FF4FC491CC23A9F0162F81110E947F
:1002A000E800EC2FF0E0EE0FFF1FED58FF4FA59197
:1002B000B4918FB7F894EC91111108C0D095DE235A
:1002C000DC938FBFDF91CF911F910895DE2BF8CF84
:1002D000CF93DF9390E0FC01E155FF4F24918556C9
:1002E0009F4FFC0184918823C9F090E0880F991FEB
:1002F000FC01E759FF4FA591B491FC01ED58FF4F68
:10030000C591D49161110DC09FB7F8948C9120953F
:1003100082238C938881282328839FBFDF91CF91EC
:100320000895623051F49FB7F8943C91822F8095E4
:1003300083238C93E8812E2BEFCF8FB7F894EC9129
:100340002E2B2C938FBFEACF3FB7F89480914002B9
:1003500090914102A0914202B091430226B5A89B20
:1003600005C02F3F19F00196A11DB11D3FBFBA2F47
:10037000A92F982F8827BC01CD01620F711D811D07
:10038000911D42E0660F771F881F991F4A95D1F78C
:1003900008958F929F92AF92BF92CF92DF92EF9289
:1003A000FF924B015C010E94A4016B017C010E9441
:1003B000A4016C197D098E099F09683E734081056F
:1003C0009105A8F321E0821A9108A108B10888EEEE
:1003D000C80E83E0D81EE11CF11C81149104A10415
:1003E000B10429F7FF90EF90DF90CF90BF90AF90CE
:1003F0009F908F9008952FB7F89460913C02709170
:100400003D0280913E0290913F022FBF0895CF920E
:10041000DF92EF92FF920F931F93CF93DF93CDB7AD
:10042000DEB7C054D1400FB6F894DEBF0FBECDBFCB
:100430000E94FB010091EA021091EB022091EC0274
:100440003091ED026B017C01C01AD10AE20AF30A75
:1004500097018601003D17402105310590F48091F8
:10046000F202C05CDE4F0FB6F894DEBF0FBECDBF08
:10047000DF91CF911F910F91FF90EF90DF90CF9080
:1004800008956093EA027093EB028093EC029093DC
:10049000ED021092E5021092E4021092E302109233
:1004A000E2021092E10262E08091E6020E9468019D
:1004B00061E070E080E090E00E94C90161E080911D
:1004C000E6020E94680160E08091E6020E943A0123
:1004D0008091E7028551823020F58BE291E101970E
:1004E000F1F762E08091E6020E9468018091F302D8
:1004F00090E08230910538F0880F991F880F991F7E
:1005000005970197F1F7F89480E00E948D006F3F06
:100510007F4F8F4F9F4F61F41092F202789480E0EA
:10052000A0CF64E170E080E090E00E94C901D9CFE3
:1005300081E00E948D006F3F7F4F8F4F9F4F61F38F
:100540008E010F5F1F4F6E012FEBC21A2EEFD20AE2
:10055000780180E00E948D00F701608371838283BF
:10056000938381E00E948D00F70164837583868305
:100570009783F8E0EF0EF11CEC14FD0451F778942A
:1005800030E020E0F801C080D180E280F380448137
:10059000558166817781FFEFCF16DF06EF06FF06F4
:1005A00031F04F3F8FEF58076807780719F4109222
:1005B000F202B5CFF90183E0F595E7958A95E1F769
:1005C000EF51FD4F8081880FC416D506E606F70669
:1005D00010F180832F5F3F4F085F1F4F2832310596
:1005E00089F64091E5022091E1028091E202280F14
:1005F0003327331F8091E302280F311D8091E402DD
:10060000820F932F911D99274817190681F681E0D3
:100610008093F20226CF8160DCCF0F931F93CF939C
:10062000DF93C82FD62F86E0C89FF0011124EC502D
:10063000FD4F11A2878D90A181309105F1F058F006
:1006400082309105F1F1039709F440C0DF91CF9119
:100650001F910F9108956623C9F361E070E08C2F1C
:100660000E94C5000E94FB0160934C0370934D03F0
:1006700080934E0390934F03E9CF0E94FB010091BA
:100680004C0310914D0320914E0330914F03AB0169
:10069000BC01401B510B620B730B80915E03909168
:1006A0005F03B0E0A0E084179507A607B70748F4FA
:1006B00062E070E08C2FDF91CF911F910F910C942D
:1006C000C50063E070E0D111C1CFF4CF70E060E00D
:1006D000F1CF862F642F0C946801862F642F0C9421
:1006E0003A01862F0C9411019091000189130BC0DF
:1006F000E8E6F0E0E4919FEF90930001E13049F0EB
:1007000028F0E23061F060E00C943A0110926E0043
:10071000FACF90916F009D7F90936F00F4CF9091EE
:1007200070009D7F9093700091E09093B000909145
:10073000B100987F94609093B1001092B300E3CF22
:10074000AF92BF92CF92DF92EF92FF920F931F93DF
:10075000CF93DF936C017B018B01040F151FEB011D
:100760005E01AE18BF08C017D10759F06991D601D4
:10077000ED91FC910190F081E02DC6010995892B46
:1007800079F7C501DF91CF911F910F91FF90EF9005
:10079000DF90CF90BF90AF900895FC01538D448DB2
:1007A000252F30E0842F90E0821B930B541710F01C
:1007B000CF96089501970895FC01918D828D981729
:1007C00061F0A28DAE0FBF2FB11D5D968C91928D01
:1007D0009F5F9F73928F90E008958FEF9FEF089532
:1007E000FC01918D828D981731F0828DE80FF11DFB
:1007F000858D90E008958FEF9FEF0895FC01918D16
:10080000228D892F90E0805C9F4F821B91098F730E
:100810009927089584E492E00E94FE0321E0892B49
:1008200009F420E0822F089580E090E0892B29F0E0
:100830000E940A0481110C9400000895FC01A48D0B
:10084000A80FB92FB11DA35ABF4F2C91848D90E0F2
:1008500001968F739927848FA689B7892C93A089D5
:10086000B1898C91837080648C93938D848D98135F
:1008700006C00288F389E02D80818F7D80830895F2
:10088000EF92FF920F931F93CF93DF93EC0181E0E0
:10089000888F9B8D8C8D98131AC0E889F989808187
:1008A00085FF15C09FB7F894EE89FF896083E889BA
:1008B000F98980818370806480839FBF81E090E0AC
:1008C000DF91CF911F910F91FF90EF900895F62E39
:1008D0000B8D10E00F5F1F4F0F731127E02E8C8DD3
:1008E0008E110CC00FB607FCFACFE889F989808118
:1008F00085FFF5CFCE010E941E04F1CFEB8DEC0FEA
:10090000FD2FF11DE35AFF4FF0829FB7F8940B8F34
:10091000EA89FB8980818062CFCFCF93DF93EC019E
:10092000888D8823B9F0AA89BB89E889F9898C91D7
:1009300085FD03C0808186FD0DC00FB607FCF7CF93
:100940008C9185FFF2CF808185FFEDCFCE010E9493
:100950001E04E9CFDF91CF91089583E00C947403D6
:10096000CF9380910001833021F08F3F59F1CF91D7
:100970000895E8E6F0E0C491C7FDF9CF61E083E0B7
:100980000E946801CC2309F48BC0C23009F09FC0DB
:100990008091B100887F86608093B1008DE880935C
:1009A000B3008FEF9FEFDC0180931F029093200232
:1009B000A0932102B0932202809170008260809304
:1009C0007000D5CF83E080930001E8E6F0E0C491A9
:1009D000CF3F69F2C13021F150F0C23009F43EC07E
:1009E000C7FDC5CF61E083E00E946801CECF14BC93
:1009F00015BC84B5826084BD85B5816085BDEEE996
:100A0000F0E0E491F0E0EE0FFF1FED58FF4F85910D
:100A10009491E2EBF0E0E491E0931302C0E0AECFFA
:100A200010928000109281008091810088608093F4
:100A3000810080918100816080938100EEE9F0E087
:100A4000E491F0E0EE0FFF1FED58FF4F8591949178
:100A5000E2EBF0E0E491E093120290CF1092B0004C
:100A60001092B1008091B00082608093B0008091BC
:100A7000B10081608093B100EEE9F0E0E491F0E034
:100A8000EE0FFF1FED58FF4F8591949190931D023B
:100A900080931C02E2EBF0E0E491E0931E026ECF43
:100AA00085B5887F846085BD8DE887BD8FEF9FEF1A
:100AB000DC018093180290931902A0931A02B0935C
:100AC0001B0280916E00826080936E0050CFC13017
:100AD000E9F480918100887F8160809381008AE0C1
:100AE0009EE890938900809388008FEF9FEFDC0150
:100AF0008093140290931502A0931602B0931702EC
:100B000080916F00826080936F0031CFC23021F0FE
:100B1000C1112DCF8AE0C9CF8AE041CFFC010190FD
:100B20000020E9F73197AF01481B590BBC0184E461
:100B300092E00C94A0030C948E058F929F92AF923A
:100B4000BF92CF92DF92EF92FF920F931F93CF93BA
:100B5000DF93CDB7DEB7A1970FB6F894DEBF0FBE17
:100B6000CDBF6B017C01F7FE41C06DE284E492E0F1
:100B70000E9440048C0122273327A9012C193D092A
:100B80004E095F0919A2CE0181967C019AE0892E57
:100B9000912CA12CB12CCA01B901A50194010E948C
:100BA000BA0D605DF70162937F01211531054105A2
:100BB000510589F790E080E0309719F0CF010E944D
:100BC0008E05800F911FA1960FB6F894DEBF0FBE61
:100BD000CDBFDF91CF911F910F91FF90EF90DF90EC
:100BE000CF90BF90AF909F908F900895AC019B01E4
:100BF00019A28E010F5D1F4F8AE0C82ED12CE12C67
:100C0000F12CCA01B901A70196010E94BA0D605DDD
:100C1000F80162938F01211531054105510589F7CE
:100C200090E080E0309779F2CF010E948E05CBCF23
:100C30001F920F920FB60F9211242F933F938F9311
:100C40009F93AF93BF9380913C0290913D02A091FE
:100C50003E02B0913F0230913B0223E0230F2D373B
:100C600058F50196A11DB11D20933B0280933C02D3
:100C700090933D02A0933E02B0933F0280914002C8
:100C800090914102A0914202B09143020196A11DB0
:100C9000B11D8093400290934102A0934202B09311
:100CA0004302BF91AF919F918F913F912F910F90F0
:100CB0000FBE0F901F90189526E8230F0296A11DD6
:100CC000B11DD2CF1F920F920FB60F9211242F9306
:100CD0003F934F935F936F937F938F939F93AF93C4
:100CE000BF93EF93FF9380911F0290912002A091F8
:100CF0002102B0912202892B8A2B8B2BD1F190916A
:100D00001E02E0911C02F0911D02808189278083E0
:100D100080911F0290912002A0912102B0912202A5
:100D2000181619061A061B069CF480911F02909152
:100D30002002A0912102B09122020197A109B109DC
:100D400080931F0290932002A0932102B09322026D
:100D5000FF91EF91BF91AF919F918F917F916F9193
:100D60005F914F913F912F910F900FBE0F901F9069
:100D70001895809100010E947403EACF1F920F9290
:100D80000FB60F9211242F933F934F935F936F935E
:100D90007F938F939F93AF93BF93EF93FF9384E4DD
:100DA00092E00E941E04FF91EF91BF91AF919F913D
:100DB0008F917F916F915F914F913F912F910F9004
:100DC0000FBE0F901F9018951F920F920FB60F92A3
:100DD00011242F938F939F93EF93FF93E0915402ED
:100DE000F09155028081E0915A02F0915B0282FD00
:100DF0001BC0908180915D028F5F8F7320915E0296
:100E0000821741F0E0915D02F0E0EC5BFD4F958FC1
:100E100080935D02FF91EF919F918F912F910F90A1
:100E20000FBE0F901F9018958081F4CF109247024B
:100E30001092460288EE93E0A0E0B0E08093480272
:100E400090934902A0934A02B0934B0288E191E04B
:100E5000909345028093440285EC90E09093510278
:100E60008093500284EC90E090935302809352025E
:100E700080EC90E0909355028093540281EC90E0D6
:100E8000909357028093560282EC90E0909359021F
:100E90008093580286EC90E090935B0280935A0214
:100EA00010925D0210925E0210925F021092600238
:100EB0001092F6021092FA021092F9021092FB02BE
:100EC0008AE291E09093F5028093F402E0E1F3E08E
:100ED0001082148213821582369683E0EC34F80770
:100EE000B9F784E091E0909357038093560381E033
:100EF00091E0909359038093580384E080935A03C0
:100F000083E080935B0388E091E0909355038093A6
:100F100054038AE090E090935D0380935C0384EF38
:100F200091E090935F0380935E03109262031092AE
:100F300061031092500310925103109252031092C9
:100F400053031092600382E18093E6028BE080936A
:100F5000E702E1ECF0E0E491E093E802EDEAF0E092
:100F6000E491E093E90280E89EE3A0E0B0E08093A2
:100F7000EE029093EF02A093F002B093F102089575
:100F8000CF93DF931F92CDB7DEB7789484B582609C
:100F900084BD84B5816084BD85B5826085BD85B51D
:100FA000816085BD80916E00816080936E0010929B
:100FB0008100809181008260809381008091810016
:100FC00081608093810080918000816080938000A7
:100FD0008091B10084608093B1008091B000816005
:100FE0008093B00080917A00846080937A00809131
:100FF0007A00826080937A0080917A008160809389
:101000007A0080917A00806880937A001092C10003
:10101000E0915402F091550282E08083E091500209
:10102000F09151021082E0915202F09153028FEC44
:10103000808310925C02E0915802F091590286E0A0
:101040008083E0915602F091570280818061808315
:10105000E0915602F0915702808188608083E09190
:101060005602F0915702808180688083E091560299
:10107000F091570280818F7D808362E08091E6024B
:101080000E9468010E94FB01605D7740810991091F
:101090006093EA027093EB028093EC029093ED026E
:1010A00087E38093F30261E08DE00E94680160E0D5
:1010B00083E10E94680181E0809360030E94FB014C
:1010C000009150031091510320915203309153032A
:1010D000AB01BC01401B510B620B730B80915C0395
:1010E00090915D03B0E0A0E084179507A607B707CD
:1010F00008F05AC110E080915A03181760F4E0918B
:101100005603F0915703E10FF11D62E080810E94C8
:1011100068011F5FF0CF912C80915B03981608F057
:1011200063C0E92CF12CE0915803F0915903EE0DC6
:10113000FF1D61E080810E946801E0915803F091F9
:101140005903EE0DFF1D60E080810E943A0181E0AD
:1011500090E0A0E0B0E0092C04C0880F991FAA1FFE
:10116000BB1F0A94D2F75C016C01C094D094812C0F
:1011700080915A03881608F5082D10E0E091560377
:10118000F0915703E00FF11F80810E9411010C5F65
:101190001F4F000F111FF801EC50FD4F892B41F438
:1011A000808191818A299B29918380838394E0CFD8
:1011B000808191818C219D21F7CFE0915803F0919E
:1011C0005903EE0DFF1D61E080810E943A0180917C
:1011D000580390915903E80EF91E60E0F7018081F1
:1011E0000E946801939498CF74EFC72E72E0D72EB7
:1011F0008601F801878D90A1892B31F4148E2FEF91
:101200003FEF368F258F11A20A5F1F4F40E353E057
:101210004017510771F7B12C80915A03B81608F0A6
:1012200053C0A12CEB2CF12CEE0CFF1CC7018450F9
:101230009D4F7C0120915B03A21608F043C0F7018B
:10124000608171810A2C02C0769567950A94E2F755
:10125000B29E900111242A0D311DE4EFF2E080E0EE
:10126000458D568D2417350709F4AAC28F5F36962F
:101270008A30B1F760FF24C0E4EFF2E090E080E054
:10128000448D411118C0E0915403F0915503E20FD1
:10129000F31F408156E0589FF001599FF00D112433
:1012A000EC50FD4F448F368F258F10A2178E61E0D2
:1012B0000E940D0305C0019636968A30910501F70C
:1012C000A394B8CFB394A8CFF12CF60181A18111DA
:1012D000F82EF6E0CF0ED11CC016D106B1F70E9451
:1012E000FB016093500370935103809352039093DA
:1012F0005303FF2009F458C080911503882309F493
:1013000053C08091130390911403019709F04CC0CE
:1013100080911003898381114BC083E10E941101E8
:101320008C0190933402809333020E94FB012B01C5
:101330003C018091370290913802A0913902B0911E
:101340003A02A3019201281B390B4A0B5B0BDA010D
:10135000C901883E9340A105B105C8F080913502CE
:1013600090913602892B09F48CC00130110509F0E7
:1013700088C00E94B00440923702509238026092B6
:10138000390270923A0283E491E00E949B0580E06A
:1013900090E0892B09F48FCE0E940A04882309F477
:1013A0008ACE0E94000087CE109260031982B5CFCA
:1013B000CE0101960E94E20B20912B0230912C026B
:1013C000F901EE0FFF1FED5DFD4F880F991F059688
:1013D00067E070E00E94A60D918380832F5F3F4FEE
:1013E00030932C0220932B022430310509F095CF45
:1013F00080912302909124020597D1F580912502D6
:1014000090912602892BA1F58091270290912802C4
:10141000029771F58091290290912A02039741F574
:101420008091350290913602019799F480E391E022
:101430000E949B0583E491E00E949B050E94AD04FD
:10144000109236021092350210922C0210922B024A
:1014500064CF86E491E00E949B0583E491E00E94C2
:101460009B0521E030E03093360220933502ECCF2B
:1014700086E591E00E949B0583E491E00E949B0534
:10148000E3CF0E940702882341F08091E7028C306D
:1014900009F464C038F48B30F1F060E070E080EC67
:1014A0009FE741C085518230C0F71091E302612F60
:1014B00070E0762F662766277F778091E402682B9D
:1014C00090E080E00E94AB0C2DEC3CEC4CEC5DE33A
:1014D0000E94390D5FC06091E30270E090E080E00F
:1014E0000E94AB0C6B017C011091E40217FF0AC053
:1014F000AC019B0160E070E080E89FEB0E94080C6B
:101500006B017C011F70612F70E090E080E00E9411
:10151000AD0C2DEC3CEC4CEC5DE30E94390DA701C9
:1015200096010E94090C0E94750C6B011B017093BF
:101530003202609331020E940702882351F08091A9
:10154000E7028B3030F08D3048F18551823008F45D
:1015500068C060E070E080EC9FE73CC01091E3025F
:10156000612F70E090E080E00E94AB0C6B017C0189
:101570006091E4026F7070E090E080E00E94AD0C3A
:101580002DEC3CEC4CEC5DE30E94390DA70196017B
:101590000E94090C17FFC7CF9058C5CF6091E20297
:1015A00070E090E080E00E94AD0C2DEC3CEC4CEC47
:1015B0005DE30E94390D4B015C016091E10270E036
:1015C00090E080E00E94AD0C9B01AC01C501B4012C
:1015D0000E94090C0E94750C4B018B0187E791E07A
:1015E0000E949B05B601DD0C880B990B0E949D059E
:1015F00085E891E00E949B05B401990C880B990B3A
:101600000E949D0583E491E00E948E0543E3241629
:101610003104CCF00E94B0041092300210922F02DC
:101620002AC06091E1027091E2027627672776274F
:1016300090E080E00E94AB0C2DEC3CEC4CEC5DE3C8
:101640000E94390DC7CF5AE1251631040CF47EC033
:101650008091330290913402003511050CF07DC069
:10166000892B09F483C00E94AD0481E090E090933F
:10167000300280932F0210922E0210922D02809140
:101680002F0290913002892B09F487C082E991E002
:101690000E949B0583E491E00E949B0580912D02AE
:1016A00090912E02892B09F47BC08CEB91E00E9473
:1016B0009B0583E491E00E949B0583E480937C007A
:1016C00080917A00806480937A0080917A0086FD10
:1016D000FCCF409178005091790020E137E2DA01A7
:1016E0000E94FB0D6B017C01A0E0B4E0A41BB50BD4
:1016F00026E930E00E94FB0D9B01AC01C701B60159
:101700000E94DC0D6901890188EE91E00E949B0531
:10171000B601DD0C880B990B0E949D0583E491E0D6
:101720000E949B0504361105F4F561E08DE00E94EE
:10173000680161E08DE00E943A0186EF91E00E942D
:101740009B0583E491E00E949B0515CE97E1291645
:10175000310444F0003511054CF080913302909132
:1017600034027ECFE2E12E1631041CF00E94AD045B
:1017700053CF8091330290913402892B09F47FCFAB
:101780000E94AD041092300210922F0221E030E04E
:1017900030932E0220932D0272CF88EA91E078CF09
:1017A00083ED91E084CF85E092E00E949B0561E0AB
:1017B0008DE00E94680160E08DE00E943A01C1CF97
:1017C000617076CDFC0188279927E8942191203219
:1017D000E9F3293010F02E30C8F32B3241F02D32CE
:1017E00039F4689404C00E94000C820F911D21916D
:1017F00020532A30C0F31EF4909581959F4F089591
:101800007AE0979F902D879F802D910D1124089548
:101810005058BB27AA270E94200C0C94FF0C0E9452
:10182000F10C38F00E94F80C20F039F49F3F19F4C5
:1018300026F40C94EE0C0EF4E095E7FB0C94E80C07
:10184000E92F0E94100D58F3BA1762077307840737
:10185000950720F079F4A6F50C94320D0EF4E0957E
:101860000B2EBA2FA02D0B01B90190010C01CA015A
:10187000A0011124FF27591B99F0593F50F4503E05
:1018800068F11A16F040A22F232F342F4427585FF7
:10189000F3CF469537952795A795F0405395C9F70F
:1018A0007EF41F16BA0B620B730B840BBAF09150C7
:1018B000A1F0FF0FBB1F661F771F881FC2F70EC066
:1018C000BA0F621F731F841F48F487957795679539
:1018D000B795F7959E3F08F0B0CF9395880F08F025
:1018E0009927EE0F9795879508950E947C0C689430
:1018F000B1110C94330D08950E94180D88F09F5774
:1019000098F0B92F9927B751B0F0E1F0660F771F23
:10191000881F991F1AF0BA95C9F714C0B13091F019
:101920000E94320DB1E008950C94320D672F782F8C
:101930008827B85F39F0B93FCCF3869577956795DE
:10194000B395D9F73EF490958095709561957F4F4A
:101950008F4F9F4F0895E89409C097FB3EF49095F0
:101960008095709561957F4F8F4F9F4F9923A9F078
:10197000F92F96E9BB279395F69587957795679507
:10198000B795F111F8CFFAF4BB0F11F460FF1BC04B
:101990006F5F7F4F8F4F9F4F16C0882311F096E9DE
:1019A00011C0772321F09EE8872F762F05C066238C
:1019B00071F096E8862F70E060E02AF09A95660F45
:1019C000771F881FDAF7880F9695879597F90895FE
:1019D00097F99F6780E870E060E008959FEF80ECE2
:1019E000089500240A941616170618060906089585
:1019F00000240A9412161306140605060895092EEB
:101A00000394000C11F4882352F0BB0F40F4BF2B59
:101A100011F460FF04C06F5F7F4F8F4F9F4F089599
:101A200057FD9058440F551F59F05F3F71F047958F
:101A3000880F97FB991F61F09F3F79F08795089574
:101A4000121613061406551FF2CF4695F1DF08C093
:101A5000161617061806991FF1CF869571056105B0
:101A600008940895E894BB2766277727CB0197F958
:101A700008950E944C0D0C94FF0C0E94F10C38F05C
:101A80000E94F80C20F0952311F00C94E80C0C94B3
:101A9000EE0C11240C94330D0E94100D70F3959FE1
:101AA000C1F3950F50E0551F629FF001729FBB2755
:101AB000F00DB11D639FAA27F00DB11DAA1F649FF1
:101AC0006627B00DA11D661F829F2227B00DA11DA4
:101AD000621F739FB00DA11D621F839FA00D611D2A
:101AE000221F749F3327A00D611D231F849F600D4B
:101AF000211D822F762F6A2F11249F5750409AF074
:101B0000F1F088234AF0EE0FFF1FBB1F661F771FFF
:101B1000881F91505040A9F79E3F510580F00C94CA
:101B2000E80C0C94330D5F3FE4F3983ED4F38695B4
:101B300077956795B795F795E7959F5FC1F7FE2B6A
:101B4000880F911D9695879597F90895AA1BBB1B41
:101B500051E107C0AA1FBB1FA617B70710F0A61BAD
:101B6000B70B881F991F5A95A9F780959095BC01CE
:101B7000CD010895A1E21A2EAA1BBB1BFD010DC0C9
:101B8000AA1FBB1FEE1FFF1FA217B307E407F5072D
:101B900020F0A21BB30BE40BF50B661F771F881F09
:101BA000991F1A9469F760957095809590959B019F
:101BB000AC01BD01CF010895052E97FB1EF40094E2
:101BC0000E94F30D57FD07D00E94BA0D07FC03D009
:101BD0004EF40C94F30D50954095309521953F4F60
:101BE0004F4F5F4F089590958095709561957F4F09
:101BF0008F4F9F4F08950E94080EB7FF0895821BD4
:101C0000930B0895EE0FFF1F0590F491E02D0994BA
:101C1000A29FB001B39FC001A39F700D811D11242D
:101C2000911DB29F700D811D1124911D0895F8948E
:021C3000FFCFE4
:101C3200FF0605040C0B08073132333435363738CA
:101C42003923302A000000004004A003CD038D0494
:101C5200FE03DC03F0030000000069036D0371035F
:101C6200416C61726D612064657361637469766150
:101C72006461000D0A00416C61726D6120616374E0
:101C8200697661646100496E6772657365206C6193
:101C920020636F6E74726173656E61206E75657616
:101CA200616D656E74650054656D70657261747501
:101CB20072613A2000202D2048756D656461643A96
:101CC200200056656E74696C61646F7220656E6384
:101CD200656E6469646F2E0056656E74696C61642A
:101CE2006F72206170616761646F2E0043616C6581
:101CF20066616363696F6E20656E63656E646964B5
:101D0200612E0043616C6566616363696F6E206179
:101D12007061676164612E00496C756D696E616303
:101D2200696F6E3A20004C656420656E63656E646F
:101D320069646F2E004C6564206170616761646F35
:021D42002E0071
:00000001FF
