:100000000C9462000C948A000C948A000C948A0070
:100010000C948A000C948A000C948A000C948A0038
:100020000C948A000C948A000C948A000C948A0028
:100030000C948A000C948A000C948A000C948A0018
:100040000C94FE040C948A000C946E050C944805E4
:100050000C948A000C948A000C948A000C948A00F8
:100060000C948A000C948A000000000024002700F1
:100070002A0000000000250028002B0000000008D6
:10008000000201000003040700000000000000005F
:1000900000000000230026002900040404040404D6
:1000A0000404020202020202030303030303010227
:1000B00004081020408001020408102001020408F6
:1000C0001020A00511241FBECFEFD8E0DEBFCDBFAA
:1000D00012E0A0E0B1E0E0E5F8E102C005900D9289
:1000E000A631B107D9F723E0A6E1B2E001C01D9225
:1000F000A435B207E1F710E0C2E6D0E004C02197D2
:10010000FE010E94110CC136D107C9F70E944A06B0
:100110000C94260C0C940000CF92DF92EF92FF9289
:10012000CF93DF93B091D902A0E08111AB2F8091E2
:10013000DA0290E0880F991FAC0140575F4FC090E2
:10014000DF02D090E002E090E102F090E20230E0C5
:1001500020E0FA01C591D491E881B90190E080E0F6
:10016000EB23EA130AC02F5F3F4F6C157D058E0508
:100170009F0578F36FEF7FEFCB01DF91CF91FF9079
:10018000EF90DF90CF90089596E0899FD0011124E1
:10019000AB51BD4F90967C936E935F9791E0919693
:1001A0009C939197E0915203F091530390915103E6
:1001B000992339F0309751F0811108C080910103E3
:1001C0000994309719F05C968C91FACF089583309A
:1001D00081F028F4813099F08230A9F008958730B9
:1001E000A9F08830C9F08430B1F4809180008F7D0F
:1001F00003C0809180008F7780938000089584B53C
:100200008F7784BD089584B58F7DFBCF8091B0003A
:100210008F778093B00008958091B0008F7DF9CFE3
:10022000CF93DF93282F30E0F901E458FF4F8491FA
:10023000F901E255FF4FD491F901E656FF4FC49101
:10024000CC23A1F081110E94E700EC2FF0E0EE0F2B
:10025000FF1FE057FF4FA591B491EC91ED2381E092
:1002600090E009F480E0DF91CF91089580E090E084
:10027000FACF1F93CF93DF93282F30E0F901E45892
:10028000FF4F8491F901E255FF4FD491F901E656F1
:10029000FF4FC491CC23A9F0162F81110E94E700D3
:1002A000EC2FF0E0EE0FFF1FEE58FF4FA591B49139
:1002B0008FB7F894EC91111108C0D095DE23DC9330
:1002C0008FBFDF91CF911F910895DE2BF8CFCF9391
:1002D000DF9390E0FC01E255FF4F249186569F4F3B
:1002E000FC0184918823C9F090E0880F991FFC01DC
:1002F000E859FF4FA591B491FC01EE58FF4FC5910D
:10030000D49161110DC09FB7F8948C9120958223F0
:100310008C938881282328839FBFDF91CF910895F4
:10032000623051F49FB7F8943C91822F80958323DB
:100330008C93E8812E2BEFCF8FB7F894EC912E2B76
:100340002C938FBFEACF3FB7F89480913102909100
:100350003202A0913302B091340226B5A89B05C0A9
:100360002F3F19F00196A11DB11D3FBFBA2FA92F34
:10037000982F8827BC01CD01620F711D811D911D31
:1003800042E0660F771F881F991F4A95D1F708959D
:100390008F929F92AF92BF92CF92DF92EF92FF9295
:1003A0004B015C010E94A3016B017C010E94A3012F
:1003B0006C197D098E099F09683E7340810591057E
:1003C000A8F321E0821A9108A108B10888EEC80EAE
:1003D00083E0D81EE11CF11C81149104A104B10436
:1003E00029F7FF90EF90DF90CF90BF90AF909F9054
:1003F0008F9008952FB7F89460912D0270912E027E
:1004000080912F02909130022FBF0895CF92DF92FA
:10041000EF92FF920F931F93CF93DF93CDB7DEB789
:10042000C054D1400FB6F894DEBF0FBECDBF0E94BE
:10043000FA010091DB021091DC022091DD02309183
:10044000DE026B017C01C01AD10AE20AF30A9701AD
:100450008601003D17402105310590F48091E302AB
:10046000C05CDE4F0FB6F894DEBF0FBECDBFDF918C
:10047000CF911F910F91FF90EF90DF90CF90089553
:100480006093DB027093DC028093DD029093DE02C6
:100490001092D6021092D5021092D4021092D3027A
:1004A0001092D20262E08091D7020E94670161E05F
:1004B00070E080E090E00E94C80161E08091D70286
:1004C0000E94670160E08091D7020E94390180910B
:1004D000D8028551823020F58BE291E10197F1F746
:1004E00062E08091D7020E9467018091E40290E06F
:1004F0008230910538F0880F991F880F991F059752
:100500000197F1F7F89480E00E948C006F3F7F4FD5
:100510008F4F9F4F61F41092E302789480E0A0CF58
:1005200064E170E080E090E00E94C801D9CF81E0F2
:100530000E948C006F3F7F4F8F4F9F4F61F38E0162
:100540000F5F1F4F6E012FEBC21A2EEFD20A7801F8
:1005500080E00E948C00F701608371838283938323
:1005600081E00E948C00F701648375838683978302
:10057000F8E0EF0EF11CEC14FD0451F7789430E034
:1005800020E0F801C080D180E280F3804481558171
:1005900066817781FFEFCF16DF06EF06FF0631F0A9
:1005A0004F3F8FEF58076807780719F41092E3025E
:1005B000B5CFF90183E0F595E7958A95E1F7EE521D
:1005C000FD4F8081880FC416D506E606F70610F1A8
:1005D00080832F5F3F4F085F1F4F2832310589F618
:1005E0004091D6022091D2028091D302280F332766
:1005F000331F8091D402280F311D8091D502820FC4
:10060000932F911D99274817190681F681E0809351
:10061000E30226CF8160DCCF0F931F93CF93DF934C
:10062000C82FD62F86E0C89FF0011124EB51FD4F53
:1006300011A2878D90A181309105F1F058F08230A0
:100640009105F1F1039709F440C0DF91CF911F911B
:100650000F9108956623C9F361E070E08C2F0E942A
:10066000C4000E94FA0160933D0370933E0380939F
:100670003F0390934003E9CF0E94FA0100913D03AC
:1006800010913E0320913F0330914003AB01BC0128
:10069000401B510B620B730B80914F0390915003E1
:1006A000B0E0A0E084179507A607B70748F462E01A
:1006B00070E08C2FDF91CF911F910F910C94C400AB
:1006C00063E070E0D111C1CFF4CF70E060E0F1CF12
:1006D000862F642F0C946701862F642F0C943901A8
:1006E000862F0C941001AF92BF92CF92DF92EF92BF
:1006F000FF920F931F93CF93DF936C017B018B01CC
:10070000040F151FEB015E01AE18BF08C017D1071B
:1007100059F06991D601ED91FC910190F081E02DA5
:10072000C6010995892B79F7C501DF91CF911F91FA
:100730000F91FF90EF90DF90CF90BF90AF90089512
:10074000FC01538D448D252F30E0842F90E0821BD7
:10075000930B541710F0CF96089501970895FC015C
:10076000918D828D981761F0A28DAE0FBF2FB11DB4
:100770005D968C91928D9F5F9F73928F90E008950C
:100780008FEF9FEF0895FC01918D828D981731F0C6
:10079000828DE80FF11D858D90E008958FEF9FEF1A
:1007A0000895FC01918D228D892F90E0805C9F4FF0
:1007B000821B91098F739927089585E392E00E9427
:1007C000D10321E0892B09F420E0822F089580E0F5
:1007D00090E0892B29F00E94DD0381110C94000028
:1007E0000895FC01A48DA80FB92FB11DA35ABF4FC6
:1007F0002C91848D90E001968F739927848FA68920
:10080000B7892C93A089B1898C91837080648C9373
:10081000938D848D981306C00288F389E02D808122
:100820008F7D80830895EF92FF920F931F93CF9354
:10083000DF93EC0181E0888F9B8D8C8D98131AC01B
:10084000E889F989808185FF15C09FB7F894EE8902
:10085000FF896083E889F98980818370806480835F
:100860009FBF81E090E0DF91CF911F910F91FF90AA
:10087000EF900895F62E0B8D10E00F5F1F4F0F7352
:100880001127E02E8C8D8E110CC00FB607FCFACF0D
:10089000E889F989808185FFF5CFCE010E94F103B7
:1008A000F1CFEB8DEC0FFD2FF11DE35AFF4FF082DE
:1008B0009FB7F8940B8FEA89FB8980818062CFCF44
:1008C000CF93DF93EC01888D8823B9F0AA89BB8987
:1008D000E889F9898C9185FD03C0808186FD0DC072
:1008E0000FB607FCF7CF8C9185FFF2CF808185FF93
:1008F000EDCFCE010E94F103E9CFDF91CF910895B2
:10090000FC0101900020E9F73197AF01481B590B1A
:10091000BC0185E392E00C9473038F929F92AF9297
:10092000BF920F931F93CF93DF93CDB7DEB7A197FD
:100930000FB6F894DEBF0FBECDBF19A2423008F447
:100940004AE08E010F5D1F4F842E912CB12CA12CFB
:10095000A50194010E94C90BE62FB901CA01EA3032
:10096000F4F4E05DD801EE938D01232B242B252B8D
:1009700079F790E080E0109719F0CD010E94800493
:10098000A1960FB6F894DEBF0FBECDBFDF91CF9119
:100990001F910F91BF90AF909F908F900895E95C49
:1009A000E1CFCF92DF92EF92FF92CF93DF936B0173
:1009B0007C016DE285E392E00E941304EC0166275E
:1009C0007727CB016C197D098E099F094AE00E94A7
:1009D0008D048C0F9D1FDF91CF91FF90EF90DF90E2
:1009E000CF9008950C948004BC01990F880B990B4B
:1009F00097FD0C94D1044AE00C948D041F920F9241
:100A00000FB60F9211242F933F938F939F93AF9321
:100A1000BF9380912D0290912E02A0912F02B09150
:100A2000300230912C0223E0230F2D3758F5019628
:100A3000A11DB11D20932C0280932D0290932E02B4
:100A4000A0932F02B0933002809131029091320234
:100A5000A0913302B09134020196A11DB11D809383
:100A6000310290933202A0933302B0933402BF91CB
:100A7000AF919F918F913F912F910F900FBE0F904B
:100A80001F90189526E8230F0296A11DB11DD2CF05
:100A90001F920F920FB60F9211242F933F934F93F3
:100AA0005F936F937F938F939F93AF93BF93EF93D6
:100AB000FF9385E392E00E94F103FF91EF91BF91D4
:100AC000AF919F918F917F916F915F914F913F91E6
:100AD0002F910F900FBE0F901F9018951F920F929D
:100AE0000FB60F9211242F938F939F93EF93FF9341
:100AF000E0914502F09146028081E0914B02F09135
:100B00004C0282FD1BC0908180914E028F5F8F73DB
:100B100020914F02821741F0E0914E02F0E0EB5C31
:100B2000FD4F958F80934E02FF91EF919F918F9192
:100B30002F910F900FBE0F901F9018958081F4CFCA
:100B4000109238021092370288EE93E0A0E0B0E0F5
:100B50008093390290933A02A0933B02B0933C02F7
:100B600087E191E0909336028093350285EC90E026
:100B7000909342028093410284EC90E0909344026F
:100B80008093430280EC90E090934602809345026C
:100B900081EC90E0909348028093470282EC90E0D1
:100BA00090934A028093490286EC90E090934C0225
:100BB00080934B0210924E0210924F0210925002FC
:100BC000109251021092E7021092EB021092EA0288
:100BD0001092EC0289E291E09093E6028093E502A4
:100BE000E1E0F3E01082148213821582369683E0EE
:100BF000ED33F807B9F783E091E0909348038093D1
:100C0000470380E091E090934A038093490384E096
:100C100080934B0383E080934C0387E091E09093B3
:100C20004603809345038AE090E090934E038093BF
:100C30004D0384EF91E09093500380934F03109203
:100C400053031092520310924103109242031092E8
:100C50004303109244031092510382E18093D70220
:100C60008BE08093D802E0ECF0E0E491E093D902CD
:100C7000ECEAF0E0E491E093DA0280E89EE3A0E0A1
:100C8000B0E08093DF029093E002A093E102B09382
:100C9000E2020895CF93DF931F92CDB7DEB7789429
:100CA00084B5826084BD84B5816084BD85B5826071
:100CB00085BD85B5816085BD80916E008160809322
:100CC0006E0010928100809181008260809381008B
:100CD000809181008160809381008091800081609B
:100CE000809380008091B10084608093B1008091F6
:100CF000B00081608093B00080917A00846080931E
:100D00007A0080917A00826080937A0080917A00E4
:100D1000816080937A0080917A00806880937A0065
:100D20001092C100E0914502F091460282E080837A
:100D3000E0914102F09142021082E0914302F09171
:100D400044028FEC808310924D02E0914902F091B1
:100D50004A0286E08083E0914702F0914802808158
:100D600080618083E0914702F09148028081886031
:100D70008083E0914702F0914802808180688083FF
:100D8000E0914702F091480280818F7D808362E08C
:100D90008091D7020E9467010E94FA01605D77404E
:100DA000810991096093DB027093DC028093DD027C
:100DB0009093DE0287E38093E402212C312C210101
:100DC000239466246394712C81E0809351030E94E4
:100DD000FA010091410310914203209143033091A5
:100DE0004403AB01BC01401B510B620B730B8091A0
:100DF0004D0390914E03B0E0A0E084179507A6073D
:100E0000B70708F020C110E080914B03181760F479
:100E1000E0914703F0914803E10FF11D62E080810A
:100E20000E9467011F5FF0CFF12C80914C03F816F0
:100E300008F061C0CF2CD12CE0914903F0914A0316
:100E4000EC0DFD1D61E080810E946701E091490386
:100E5000F0914A03EC0DFD1D60E080810E94390194
:100E6000D201C1010F2C04C0880F991FAA1FBB1FFC
:100E70000A94D2F74C015C01A094B094E12C8091CB
:100E80004B03E81608F50E2D10E0E0914703F091B2
:100E90004803E00FF11F80810E9410010C5F1F4F7B
:100EA000000F111FF801EB51FD4F892B41F4808198
:100EB00091818829992991838083E394E0CF80816F
:100EC00091818A219B21F7CFE0914903F0914A0358
:100ED000EC0DFD1D61E080810E9439018091490384
:100EE00090914A03C80ED91E60E0F60180810E94ED
:100EF0006701F3949ACF05EE12E0F801878D90A177
:100F0000892B31F4148E8FEF9FEF968F858F11A26E
:100F1000369693E0E132F90789F7F12C80914B0383
:100F2000F81608F053C0E12CCF2CD12CCC0CDD1CD2
:100F3000F601E351FD4F6F0120914C03E21608F0DA
:100F400043C0F601608171810E2C02C076956795D1
:100F50000A94E2F7F29E900111242E0D311DE5EE68
:100F6000F2E080E0458D568D2417350709F437C22D
:100F70008F5F36968A30B1F760FF24C0E5EEF2E06D
:100F800090E080E0448D411118C0E0914503F0915C
:100F90004603E20FF31F408156E0589FF001599F2E
:100FA000F00D1124EB51FD4F448F368F258F10A289
:100FB000178E61E00E940C0305C0019636968A30B8
:100FC000910501F7E394B8CFF394A8CFF12CF80181
:100FD00081A18111F82E0A5F1F4FF3E001321F0734
:100FE000B1F70E94FA01609341037093420380932A
:100FF000430390934403FF2031F18091060388233B
:1010000011F180910403909105030197E1F480911F
:101010000103898381111BC082E491E00E94F204E4
:101020000E940602882351F08091D8028C3009F486
:10103000CDC008F070C08B3009F487C060E070E06C
:1010400080EC9FE7AAC0109251031982E5CFCE0130
:1010500001960E94F10920912A0230912B02F90198
:10106000EE0FFF1FEE5DFD4F880F991F059667E09D
:1010700070E00E94B50B918380832F5F3F4F3093C8
:101080002B0220932A022430310531F6809122026E
:10109000909123020597B1F5809124029091250249
:1010A000892B81F58091260290912702029751F5B4
:1010B0008091280290912902039721F580912002C6
:1010C00090912102019789F48FE291E00E94F2044D
:1010D00082E491E00E94F204109221021092200218
:1010E00010922B0210922A0297CF85E491E00E9481
:1010F000F20482E491E00E94F20470922102609274
:101100002002EECF85E591E00E94F20482E491E0B6
:101110000E94F204E5CF8551823008F08FCF109104
:10112000D402612F70E0762F662766277F77809143
:10113000D502682B90E080E00E94BA0A2DEC3CECCE
:101140004CEC5DE30E94480B5DC06091D40270E0FE
:1011500090E080E00E94BA0A6B017C011091D502F8
:1011600017FF0AC0AC019B0160E070E080E89FEBD4
:101170000E94170A6B017C011F70612F70E090E0E4
:1011800080E00E94BC0A2DEC3CEC4CEC5DE30E943C
:10119000480BA70196010E94180A0E94840A7093C6
:1011A0001F0260931E020E940602882351F0809164
:1011B000D8028B3030F08D3048F18551823008F400
:1011C000E4C060E070E080EC9FE73CC01091D40286
:1011D000612F70E090E080E00E94BA0A6B017C0110
:1011E0006091D5026F7070E090E080E00E94BC0AD0
:1011F0002DEC3CEC4CEC5DE30E94480BA701960102
:101200000E94180A17FFC9CF9058C7CF6091D30228
:1012100070E090E080E00E94BC0A2DEC3CEC4CECCD
:101220005DE30E94480B6B017C016091D20270E08B
:1012300090E080E00E94BC0A9B01AC01C701B601AE
:101240000E94180A0E94840A70931D0260931C0277
:1012500086E791E00E94F20480911E0290911F02A5
:101260000E94F40484E891E00E94F20460911C0260
:1012700070911D02072E000C880B990B97FF97C0E9
:101280000E94D10482E491E00E94800480911C02BB
:1012900090911D02833391050CF08DC070921B025A
:1012A00060921A0280911E0290911F0249970CF4DD
:1012B0008BC0709219026092180280911A0290916C
:1012C0001B02892B09F485C081E991E00E94F20498
:1012D00082E491E00E94F204809118029091190238
:1012E000892B09F479C08AEC91E00E94F20482E42F
:1012F00091E00E94F20483E480937C0080917A0064
:10130000806480937A0080917A0086FDFCCF4091C2
:1013100078005091790020E137E2DA010E940A0C4E
:101320006B017C01A0E0B4E0A41BB50B26E930E022
:101330000E940A0C9B01AC01C701B6010E94EB0B95
:1013400030931702209316028FE092E00E94F2047D
:1013500080911602909117020E94F40482E491E0B9
:101360000E94F2046CED75E080E090E00E94C801FC
:1013700080E090E0892B09F427CD0E94DD038823CB
:1013800009F422CD0E9400001FCD6091D20270911D
:10139000D30276276727762790E080E00E94BA0A7A
:1013A0002DEC3CEC4CEC5DE30E94480B4BCF4AE04B
:1013B0000E948D0467CF8B3491050CF473CF10928B
:1013C0001B0210921A026ECF10921902109218028C
:1013D00074CF8CEA91E07ACF8BEE91E086CF61708A
:1013E000E9CDFC0188279927E89421912032E9F37F
:1013F000293010F02E30C8F32B3241F02D3239F461
:10140000689404C00E940F0A820F911D21912053FD
:101410002A30C0F31EF4909581959F4F08957AE08D
:10142000979F902D879F802D910D112408955058DE
:10143000BB27AA270E942F0A0C940E0B0E94000BB8
:1014400038F00E94070B20F039F49F3F19F426F47E
:101450000C94FD0A0EF4E095E7FB0C94F70AE92FD3
:101460000E941F0B58F3BA1762077307840795078A
:1014700020F079F4A6F50C94410B0EF4E0950B2EB8
:10148000BA2FA02D0B01B90190010C01CA01A001D6
:101490001124FF27591B99F0593F50F4503E68F131
:1014A0001A16F040A22F232F342F4427585FF3CF72
:1014B000469537952795A795F0405395C9F77EF443
:1014C0001F16BA0B620B730B840BBAF09150A1F08C
:1014D000FF0FBB1F661F771F881FC2F70EC0BA0F12
:1014E000621F731F841F48F4879577956795B7959A
:1014F000F7959E3F08F0B0CF9395880F08F0992795
:10150000EE0F9795879508950E948B0A6894B11104
:101510000C94420B08950E94270B88F09F5798F077
:10152000B92F9927B751B0F0E1F0660F771F881FE8
:10153000991F1AF0BA95C9F714C0B13091F00E9402
:10154000410BB1E008950C94410B672F782F882749
:10155000B85F39F0B93FCCF3869577956795B39529
:10156000D9F73EF490958095709561957F4F8F4F98
:101570009F4F0895E89409C097FB3EF4909580959D
:10158000709561957F4F8F4F9F4F9923A9F0F92F49
:1015900096E9BB279395F695879577956795B795C7
:1015A000F111F8CFFAF4BB0F11F460FF1BC06F5FAD
:1015B0007F4F8F4F9F4F16C0882311F096E911C0BF
:1015C000772321F09EE8872F762F05C0662371F0E0
:1015D00096E8862F70E060E02AF09A95660F771FF4
:1015E000881FDAF7880F9695879597F9089597F9E8
:1015F0009F6780E870E060E008959FEF80EC0895B9
:1016000000240A94161617061806090608950024E1
:101610000A9412161306140605060895092E03945B
:10162000000C11F4882352F0BB0F40F4BF2B11F4CF
:1016300060FF04C06F5F7F4F8F4F9F4F089557FD2E
:101640009058440F551F59F05F3F71F04795880F30
:1016500097FB991F61F09F3F79F0879508951216C7
:1016600013061406551FF2CF4695F1DF08C0161673
:1016700017061806991FF1CF869571056105089424
:101680000895E894BB2766277727CB0197F908953B
:101690000E945B0B0C940E0B0E94000B38F00E9412
:1016A000070B20F0952311F00C94F70A0C94FD0A17
:1016B00011240C94420B0E941F0B70F3959FC1F3F1
:1016C000950F50E0551F629FF001729FBB27F00DF0
:1016D000B11D639FAA27F00DB11DAA1F649F662745
:1016E000B00DA11D661F829F2227B00DA11D621F94
:1016F000739FB00DA11D621F839FA00D611D221F4E
:10170000749F3327A00D611D231F849F600D211D31
:10171000822F762F6A2F11249F5750409AF0F1F0B4
:1017200088234AF0EE0FFF1FBB1F661F771F881F1D
:1017300091505040A9F79E3F510580F00C94F70A54
:101740000C94420B5F3FE4F3983ED4F38695779573
:101750006795B795F795E7959F5FC1F7FE2B880FC3
:10176000911D9695879597F90895AA1BBB1B51E18A
:1017700007C0AA1FBB1FA617B70710F0A61BB70B01
:10178000881F991F5A95A9F780959095BC01CD01A6
:101790000895A1E21A2EAA1BBB1BFD010DC0AA1FB2
:1017A000BB1FEE1FFF1FA217B307E407F50720F0CA
:1017B000A21BB30BE40BF50B661F771F881F991F45
:1017C0001A9469F760957095809590959B01AC018E
:1017D000BD01CF010895052E97FB1EF400940E94D1
:1017E000020C57FD07D00E94C90B07FC03D04EF432
:1017F0000C94020C50954095309521953F4F4F4FDA
:101800005F4F089590958095709561957F4F8F4FAC
:101810009F4F08950E94170CB7FF0895821B930BEA
:101820000895EE0FFF1F0590F491E02D0994A29FFB
:10183000B001B39FC001A39F700D811D1124911DA4
:10184000B29F700D811D1124911D0895F894FFCF52
:101850000605040C0B080731323334353637383976
:1018600023302A0000000013047303A0036004D196
:1018700003AF03C3030000000068036C037003415F
:101880006C61726D61206465736163746976616413
:1018900061000D0A00416C61726D612061637469C1
:1018A0007661646100496E6772657365206C6120C2
:1018B000636F6E74726173656E61206E75657661BB
:1018C0006D656E74650054656D70657261747572D6
:1018D000613A2000202D2048756D656461643A20CE
:1018E0000053697374656D61206465207269656772
:1018F0006F20616374697661646F2E00536973743D
:10190000656D6120646520726965676F2064657329
:10191000616374697661646F2E0053697374656DD9
:10192000612064652076656E74696C6163696F6EB1
:1019300020616374697661646F2E00536973746506
:101940006D612064652076656E74696C6163696F92
:101950006E20646573616374697661646F2E004CF8
:06196000757A3A20000038
:00000001FF
