:100000000C9463000C948B000C948B000C948B006C
:100010000C948B000C948B000C948B000C94620657
:100020000C948B000C948B000C948B000C948B0024
:100030000C948B000C948B000C948B000C948B0014
:100040000C9418060C948B000C94E4060C94BE06D9
:100050000C948B000C948B000C948B000C948B00F4
:100060000C948B000C948B000200000000240027ED
:10007000002A0000000000250028002B00000000DE
:100080000800020100000304070000000000000057
:1000900000000000002300260029000404040404DA
:1000A0000404040202020202020303030303030125
:1000B00002040810204080010204081020010204FC
:1000C00008102000160711241FBECFEFD8E0DEBFB6
:1000D000CDBF12E0A0E0B1E0E0E2FCE102C005909B
:1000E0000D92AA31B107D9F723E0AAE1B2E001C02D
:1000F0001D92A736B207E1F710E0C3E6D0E004C0D6
:100100002197FE010E94F90DC236D107C9F70E945E
:10011000C0070C940E0E0C940000CF92DF92EF9269
:10012000FF92CF93DF93B091EC02A0E08111AB2F4F
:100130008091ED0290E0880F991FAC014F565F4F00
:10014000C090F202D090F302E090F402F090F50239
:1001500030E020E0FA01C591D491E881B90190E046
:1001600080E0EB23EA130AC02F5F3F4F6C157D053B
:100170008E059F0578F36FEF7FEFCB01DF91CF9175
:10018000FF90EF90DF90CF90089596E0899FD00187
:100190001124A850BD4F90967C936E935F9791E089
:1001A00091969C939197E0916503F09166039091ED
:1001B0006403992339F0309751F0811108C0809180
:1001C00014030994309719F05C968C91FACF089536
:1001D000833081F028F4813099F08230A9F00895BD
:1001E0008730A9F08830C9F08430B1F48091800064
:1001F0008F7D03C0809180008F7780938000089569
:1002000084B58F7784BD089584B58F7DFBCF8091B1
:10021000B0008F778093B00008958091B0008F7DFB
:10022000F9CFCF93DF93282F30E0F901E358FF4F48
:100230008491F901E155FF4FD491F901E556FF4F43
:10024000C491CC23A1F081110E94E800EC2FF0E0D2
:10025000EE0FFF1FEF56FF4FA591B491EC91ED23E8
:1002600081E090E009F480E0DF91CF91089580E093
:1002700090E0FACF1F93CF93DF93282F30E0F9015E
:10028000E358FF4F8491F901E155FF4FD491F901F3
:10029000E556FF4FC491CC23A9F0162F81110E947F
:1002A000E800EC2FF0E0EE0FFF1FED58FF4FA59197
:1002B000B4918FB7F894EC91111108C0D095DE235A
:1002C000DC938FBFDF91CF911F910895DE2BF8CF84
:1002D000CF93DF9390E0FC01E155FF4F24918556C9
:1002E0009F4FFC0184918823C9F090E0880F991FEB
:1002F000FC01E759FF4FA591B491FC01ED58FF4F68
:10030000C591D49161110DC09FB7F8948C9120953F
:1003100082238C938881282328839FBFDF91CF91EC
:100320000895623051F49FB7F8943C91822F8095E4
:1003300083238C93E8812E2BEFCF8FB7F894EC9129
:100340002E2B2C938FBFEACF3FB7F89480914402B5
:1003500090914502A0914602B091470226B5A89B14
:1003600005C02F3F19F00196A11DB11D3FBFBA2F47
:10037000A92F982F8827BC01CD01620F711D811D07
:10038000911D42E0660F771F881F991F4A95D1F78C
:1003900008958F929F92AF92BF92CF92DF92EF9289
:1003A000FF924B015C010E94A4016B017C010E9441
:1003B000A4016C197D098E099F09683E734081056F
:1003C0009105A8F321E0821A9108A108B10888EEEE
:1003D000C80E83E0D81EE11CF11C81149104A10415
:1003E000B10429F7FF90EF90DF90CF90BF90AF90CE
:1003F0009F908F9008952FB7F8946091400270916C
:10040000410280914202909143022FBF0895CF9202
:10041000DF92EF92FF920F931F93CF93DF93CDB7AD
:10042000DEB7C054D1400FB6F894DEBF0FBECDBFCB
:100430000E94FB010091EE021091EF022091F00268
:100440003091F1026B017C01C01AD10AE20AF30A71
:1004500097018601003D17402105310590F48091F8
:10046000F602C05CDE4F0FB6F894DEBF0FBECDBF04
:10047000DF91CF911F910F91FF90EF90DF90CF9080
:1004800008956093EE027093EF028093F0029093D0
:10049000F1021092E9021092E8021092E702109223
:1004A000E6021092E50262E08091EA020E94680191
:1004B00061E070E080E090E00E94C90161E080911D
:1004C000EA020E94680160E08091EA020E943A011B
:1004D0008091EB028551823020F58BE291E101970A
:1004E000F1F762E08091EA020E9468018091F702D0
:1004F00090E08230910538F0880F991F880F991F7E
:1005000005970197F1F7F89480E00E948D006F3F06
:100510007F4F8F4F9F4F61F41092F602789480E0E6
:10052000A0CF64E170E080E090E00E94C901D9CFE3
:1005300081E00E948D006F3F7F4F8F4F9F4F61F38F
:100540008E010F5F1F4F6E012FEBC21A2EEFD20AE2
:10055000780180E00E948D00F701608371838283BF
:10056000938381E00E948D00F70164837583868305
:100570009783F8E0EF0EF11CEC14FD0451F778942A
:1005800030E020E0F801C080D180E280F380448137
:10059000558166817781FFEFCF16DF06EF06FF06F4
:1005A00031F04F3F8FEF58076807780719F4109222
:1005B000F602B5CFF90183E0F595E7958A95E1F765
:1005C000EB51FD4F8081880FC416D506E606F7066D
:1005D00010F180832F5F3F4F085F1F4F2832310596
:1005E00089F64091E9022091E5028091E602280F08
:1005F0003327331F8091E702280F311D8091E802D5
:10060000820F932F911D99274817190681F681E0D3
:100610008093F60226CF8160DCCF0F931F93CF9398
:10062000DF93C82FD62F86E0C89FF0011124E85031
:10063000FD4F11A2878D90A181309105F1F058F006
:1006400082309105F1F1039709F440C0DF91CF9119
:100650001F910F9108956623C9F361E070E08C2F1C
:100660000E94C5000E94FB016093500370935103E8
:100670008093520390935303E9CF0E94FB010091B2
:100680005003109151032091520330915303AB0159
:10069000BC01401B510B620B730B80916203909164
:1006A0006303B0E0A0E084179507A607B70748F4F6
:1006B00062E070E08C2FDF91CF911F910F910C942D
:1006C000C50063E070E0D111C1CFF4CF70E060E00D
:1006D000F1CF862F642F0C946801862F642F0C9421
:1006E0003A01862F0C9411019091000189130BC0DF
:1006F000E8E6F0E0E4919FEF90930001E13049F0EB
:1007000028F0E23061F060E00C943A0110926E0043
:10071000FACF90916F009D7F90936F00F4CF9091EE
:1007200070009D7F9093700091E09093B000909145
:10073000B100987F94609093B1001092B300E3CF22
:10074000AF92BF92CF92DF92EF92FF920F931F93DF
:10075000CF93DF936C017B018B01040F151FEB011D
:100760005E01AE18BF08C017D10759F06991D601D4
:10077000ED91FC910190F081E02DC6010995892B46
:1007800079F7C501DF91CF911F910F91FF90EF9005
:10079000DF90CF90BF90AF900895FC01538D448DB2
:1007A000252F30E0842F90E0821B930B541710F01C
:1007B000CF96089501970895FC01918D828D981729
:1007C00061F0A28DAE0FBF2FB11D5D968C91928D01
:1007D0009F5F9F73928F90E008958FEF9FEF089532
:1007E000FC01918D828D981731F0828DE80FF11DFB
:1007F000858D90E008958FEF9FEF0895FC01918D16
:10080000228D892F90E0805C9F4F821B91098F730E
:100810009927089588E492E00E94FE0321E0892B45
:1008200009F420E0822F089580E090E0892B29F0E0
:100830000E940A0481110C9400000895FC01A48D0B
:10084000A80FB92FB11DA35ABF4F2C91848D90E0F2
:1008500001968F739927848FA689B7892C93A089D5
:10086000B1898C91837080648C93938D848D98135F
:1008700006C00288F389E02D80818F7D80830895F2
:10088000EF92FF920F931F93CF93DF93EC0181E0E0
:10089000888F9B8D8C8D98131AC0E889F989808187
:1008A00085FF15C09FB7F894EE89FF896083E889BA
:1008B000F98980818370806480839FBF81E090E0AC
:1008C000DF91CF911F910F91FF90EF900895F62E39
:1008D0000B8D10E00F5F1F4F0F731127E02E8C8DD3
:1008E0008E110CC00FB607FCFACFE889F989808118
:1008F00085FFF5CFCE010E941E04F1CFEB8DEC0FEA
:10090000FD2FF11DE35AFF4FF0829FB7F8940B8F34
:10091000EA89FB8980818062CFCFCF93DF93EC019E
:10092000888D8823B9F0AA89BB89E889F9898C91D7
:1009300085FD03C0808186FD0DC00FB607FCF7CF93
:100940008C9185FFF2CF808185FFEDCFCE010E9493
:100950001E04E9CFDF91CF91089583E00C947403D6
:10096000CF9380910001833021F08F3F59F1CF91D7
:100970000895E8E6F0E0C491C7FDF9CF61E083E0B7
:100980000E946801CC2309F48BC0C23009F09FC0DB
:100990008091B100887F86608093B1008DE880935C
:1009A000B3008FEF9FEFDC01809327029093280222
:1009B000A0932902B0932A028091700082608093F4
:1009C0007000D5CF83E080930001E8E6F0E0C491A9
:1009D000CF3F69F2C13021F150F0C23009F43EC07E
:1009E000C7FDC5CF61E083E00E946801CECF14BC93
:1009F00015BC84B5826084BD85B5816085BDEEE996
:100A0000F0E0E491F0E0EE0FFF1FED58FF4F85910D
:100A10009491E2EBF0E0E491E0931B02C0E0AECFF2
:100A200010928000109281008091810088608093F4
:100A3000810080918100816080938100EEE9F0E087
:100A4000E491F0E0EE0FFF1FED58FF4F8591949178
:100A5000E2EBF0E0E491E0931A0290CF1092B00044
:100A60001092B1008091B00082608093B0008091BC
:100A7000B10081608093B100EEE9F0E0E491F0E034
:100A8000EE0FFF1FED58FF4F859194919093250233
:100A900080932402E2EBF0E0E491E09326026ECF33
:100AA00085B5887F846085BD8DE887BD8FEF9FEF1A
:100AB000DC018093200290932102A0932202B09344
:100AC000230280916E00826080936E0050CFC1300F
:100AD000E9F480918100887F8160809381008AE0C1
:100AE0009EE890938900809388008FEF9FEFDC0150
:100AF00080931C0290931D02A0931E02B0931F02CC
:100B000080916F00826080936F0031CFC23021F0FE
:100B1000C1112DCF8AE0C9CF8AE041CFFC010190FD
:100B20000020E9F73197AF01481B590BBC0188E45D
:100B300092E00C94A0030C948E058F929F92AF923A
:100B4000BF92CF92DF92EF92FF920F931F93CF93BA
:100B5000DF93CDB7DEB7A1970FB6F894DEBF0FBE17
:100B6000CDBF6B017C01F7FE41C06DE288E492E0ED
:100B70000E9440048C0122273327A9012C193D092A
:100B80004E095F0919A2CE0181967C019AE0892E57
:100B9000912CA12CB12CCA01B901A50194010E948C
:100BA000B10D605DF70162937F01211531054105AB
:100BB000510589F790E080E0309719F0CF010E944D
:100BC0008E05800F911FA1960FB6F894DEBF0FBE61
:100BD000CDBFDF91CF911F910F91FF90EF90DF90EC
:100BE000CF90BF90AF909F908F900895AC019B01E4
:100BF00019A28E010F5D1F4F8AE0C82ED12CE12C67
:100C0000F12CCA01B901A70196010E94B10D605DE6
:100C1000F80162938F01211531054105510589F7CE
:100C200090E080E0309779F2CF010E948E05CBCF23
:100C30001F920F920FB60F9211242F933F938F9311
:100C40009F93AF93BF938091400290914102A091F6
:100C50004202B091430230913F0223E0230F2D372F
:100C600058F50196A11DB11D20933F0280934002CB
:100C700090934102A0934202B093430280914402B8
:100C800090914502A0914602B09147020196A11DA4
:100C9000B11D8093440290934502A0934602B09305
:100CA0004702BF91AF919F918F913F912F910F90EC
:100CB0000FBE0F901F90189526E8230F0296A11DD6
:100CC000B11DD2CF1F920F920FB60F9211242F9306
:100CD0003F934F935F936F937F938F939F93AF93C4
:100CE000BF93EF93FF938091270290912802A091E8
:100CF0002902B0912A02892B8A2B8B2BD1F190915A
:100D00002602E0912402F0912502808189278083C8
:100D10008091270290912802A0912902B0912A0285
:100D2000181619061A061B069CF48091270290914A
:100D30002802A0912902B0912A020197A109B109C4
:100D40008093270290932802A0932902B0932A024D
:100D5000FF91EF91BF91AF919F918F917F916F9193
:100D60005F914F913F912F910F900FBE0F901F9069
:100D70001895809100010E947403EACF1F920F9290
:100D80000FB60F9211242F933F934F935F936F935E
:100D90007F938F939F93AF93BF93EF93FF9388E4D9
:100DA00092E00E941E04FF91EF91BF91AF919F913D
:100DB0008F917F916F915F914F913F912F910F9004
:100DC0000FBE0F901F9018951F920F920FB60F92A3
:100DD00011242F938F939F93EF93FF93E0915802E9
:100DE000F09159028081E0915E02F0915F0282FDF4
:100DF0001BC09081809161028F5F8F73209162028E
:100E0000821741F0E0916102F0E0E85BFD4F958FC1
:100E100080936102FF91EF919F918F912F910F909D
:100E20000FBE0F901F9018958081F4CF10924B0247
:100E300010924A0288EE93E0A0E0B0E080934C026A
:100E400090934D02A0934E02B0934F0288E191E03F
:100E5000909349028093480285EC90E0909355026C
:100E60008093540284EC90E0909357028093560252
:100E700080EC90E0909359028093580281EC90E0CE
:100E800090935B0280935A0282EC90E090935D0213
:100E900080935C0286EC90E090935F0280935E0208
:100EA0001092610210926202109263021092640228
:100EB0001092FA021092FE021092FD021092FF02AE
:100EC0008AE291E09093F9028093F802E4E1F3E082
:100ED0001082148213821582369683E0E035F8077B
:100EE000B9F784E091E090935B0380935A0381E02B
:100EF00091E090935D0380935C0384E080935E03B4
:100F000083E080935F0388E091E09093590380939E
:100F100058038AE090E0909361038093600384EF2C
:100F200091E09093630380936203109266031092A2
:100F300065031092540310925503109256031092B9
:100F400057031092640382E18093EA028BE080935E
:100F5000EB02E1ECF0E0E491E093EC02EDEAF0E08A
:100F6000E491E093ED0280E89EE3A0E0B0E080939E
:100F7000F2029093F302A093F402B093F502089565
:100F8000CF93DF931F92CDB7DEB7789484B582609C
:100F900084BD84B5816084BD85B5826085BD85B51D
:100FA000816085BD80916E00816080936E0010929B
:100FB0008100809181008260809381008091810016
:100FC00081608093810080918000816080938000A7
:100FD0008091B10084608093B1008091B000816005
:100FE0008093B00080917A00846080937A00809131
:100FF0007A00826080937A0080917A008160809389
:101000007A0080917A00806880937A001092C10003
:10101000E0915802F091590282E08083E0915402FD
:10102000F09155021082E0915602F09157028FEC38
:10103000808310926002E0915C02F0915D0286E094
:101040008083E0915A02F0915B028081806180830D
:10105000E0915A02F0915B02808188608083E09188
:101060005A02F0915B02808180688083E0915A028D
:10107000F0915B0280818F7D808362E08091EA0243
:101080000E9468010E94FB01605D7740810991091F
:101090006093EE027093EF028093F0029093F1025E
:1010A00087E38093F70261E08DE00E94680160E0D1
:1010B00083E10E946801F4E32F2EF3E03F2EAA247F
:1010C000A394B12C81E0809364030E94FB01009102
:1010D0005403109155032091560330915703AB01EF
:1010E000BC01401B510B620B730B8091600390910C
:1010F0006103B0E0A0E084179507A607B70708F0E2
:1011000046C110E080915E03181760F4E0915A0325
:10111000F0915B03E10FF11D62E080810E946801A4
:101120001F5FF0CF712C80915F03781608F063C0C9
:10113000E72CF12CE0915C03F0915D03EE0DFF1DB7
:1011400061E080810E946801E0915C03F0915D03A1
:10115000EE0DFF1D60E080810E943A0181E090E089
:10116000A0E0B0E0072C04C0880F991FAA1FBB1F86
:101170000A94D2F74C016C01C094D094612C8091F8
:101180005E03681608F5062D10E0E0915A03F09111
:101190005B03E00FF11F80810E9411010C5F1F4F64
:1011A000000F111FF801E850FD4F892B41F4808199
:1011B000918188299929918380836394E0CF8081EC
:1011C00091818C219D21F7CFE0915C03F0915D032B
:1011D000EE0DFF1D61E080810E943A0180915C0369
:1011E00090915D03E80EF91E60E0F70180810E9496
:1011F0006801739498CF08EF12E07801F701878DAA
:1012000090A1892B31F4148E8FEF9FEF968F858FED
:1012100011A296E0E90EF11C2E143F0479F7D12CAF
:1012200080915E03D81608F053C0C12C8D2C912CF0
:10123000880C991CF401E050FD4F4F0120915F0391
:10124000C21608F043C0F401608171810C2C02C009
:10125000769567950A94E2F7D29E900111242C0DA1
:10126000311DE8EFF2E080E0458D568D24173507FB
:1012700009F49DC28F5F36968A30B1F760FF24C0B3
:10128000E8EFF2E090E080E0448D411118C0E09179
:101290005803F0915903E20FF31F408156E0589F25
:1012A000F001599FF00D1124E850FD4F448F368F07
:1012B000258F10A2178E61E00E940D0305C00196D4
:1012C00036968A30910501F7C394B8CFD394A8CF4E
:1012D000D12CF80181A18111D82E0A5F1F4FE01691
:1012E000F106B9F70E94FB01609354037093550314
:1012F0008093560390935703DD2009F448C08091F2
:101300001903882309F443C08091170390911803AF
:101310000197E9F580911403898381113CC083E42E
:1013200091E00E949B0583E10E9411018C0187E7F7
:1013300091E00E949B05B801012E000C880B990BCF
:101340000E949D050130110509F08CC010933C02EC
:1013500000933B0280913D0290913E02892B09F45B
:1013600086C080913B0290913C02019709F07FC0BA
:101370000E94B00480E090E0892B09F4A3CE0E9483
:101380000A04882309F49ECE0E94000098CE109291
:1013900064031982C4CFCE0101960E94D90B20911B
:1013A000330230913402F901EE0FFF1FE55DFD4F6E
:1013B000880F991F059667E070E00E949D0D91834C
:1013C00080832F5F3F4F30933402209333022430C9
:1013D000310509F0A4CF80912B0290912C02059742
:1013E000C1F580912D0290912E02892B91F580916B
:1013F0002F0290913002029761F580913102909115
:101400003202039731F580913D0290913E0201979F
:1014100099F480E391E00E949B0583E491E00E94AF
:101420009B050E94AD0410923E0210923D02109264
:1014300034021092330273CF86E491E00E949B0540
:1014400083E491E00E949B05B0923E02A0923D028F
:10145000EECF86E591E00E949B0583E491E00E9437
:101460009B05E5CF10923C0210923B0273CF0E9485
:101470000702882341F08091EB028C3009F464C0AC
:1014800038F48B30F1F060E070E080EC9FE741C011
:1014900085518230C0F71091E702612F70E0762FFE
:1014A000662766277F778091E802682B90E080E0CE
:1014B0000E94A20C2DEC3CEC4CEC5DE30E94300D44
:1014C0005FC06091E70270E090E080E00E94A20CB3
:1014D0006B017C011091E80217FF0AC0AC019B016F
:1014E00060E070E080E89FEB0E94FF0B6B017C01E5
:1014F0001F70612F70E090E080E00E94A40C2DEC42
:101500003CEC4CEC5DE30E94300DA70196010E947B
:10151000000C0E946C0C2B018B0170933A026093BB
:1015200039020E940702882351F08091EB028B3030
:1015300030F08D3048F18551823008F467C060E0AA
:1015400070E080EC9FE73CC01091E702612F70E0F3
:1015500090E080E00E94A20C6B017C016091E802A7
:101560006F7070E090E080E00E94A40C2DEC3CECE9
:101570004CEC5DE30E94300DA70196010E94000C27
:1015800017FFC7CF9058C5CF6091E60270E090E09A
:1015900080E00E94A40C2DEC3CEC4CEC5DE30E943E
:1015A000300D6B017C016091E50270E090E080E01D
:1015B0000E94A40C9B01AC01C701B6010E94000C63
:1015C0000E946C0C6B018FE791E00E949B05B201B9
:1015D000550C880B990B0E949D058DE891E00E94A7
:1015E0009B05B6010D2C000C880B990B0E949D05E4
:1015F00083E491E00E948E0503331105CCF00E9434
:10160000B004109238021092370228C06091E502AF
:101610007091E60276276727762790E080E00E94A7
:10162000A20C2DEC3CEC4CEC5DE30E94300DC8CFDD
:101630000A3111050CF484C080913B0290913C0268
:10164000F0E5CF16D1040CF082C0892B09F487C0D5
:101650000E94AD04B0923802A09237021092360276
:10166000109235028091370290913802892B09F44B
:101670008BC08AE991E00E949B0583E491E00E947F
:101680009B058091350290913602892B09F47FC029
:1016900084EC91E00E949B0583E491E00E949B050D
:1016A00083E480937C0080917A00806480937A0048
:1016B00080917A0086FDFCCF4091780050917900AE
:1016C00020E137E2DA010E94F20D6B017C01A0E01B
:1016D000B4E0A41BB50B26E930E00E94F20D9B019B
:1016E000AC01C701B6010E94D30D6901890180EFE9
:1016F00091E00E949B05B601DD0C880B990B0E94BE
:101700009D0583E491E00E949B05043611050CF0D1
:1017100041C061E08DE00E94680161E08DE00E94BF
:101720003A018EEF91E00E949B0583E491E00E94D4
:101730009B056CED75E080E090E00E94C9011ACE37
:10174000073111054CF020E5C216D10444F0809118
:101750003B0290913C0279CF023111051CF00E94AE
:10176000AD044FCF80913B0290913C02892B09F44C
:1017700079CF0E94AD041092380210923702B092D5
:101780003602A09235026ECF80EB91E074CF8BEDE4
:1017900091E080CF8DE092E00E949B0561E08DE0BA
:1017A0000E94680160E08DE00E943A01BECF617046
:1017B00083CDFC0188279927E89421912032E9F311
:1017C000293010F02E30C8F32B3241F02D3239F48D
:1017D000689404C00E94F70B820F911D2191205341
:1017E0002A30C0F31EF4909581959F4F08957AE0BA
:1017F000979F902D879F802D910D1124089550580B
:10180000BB27AA270E94170C0C94F60C0E94E80C28
:1018100038F00E94EF0C20F039F49F3F19F426F4C1
:101820000C94E50C0EF4E095E7FB0C94DF0CE92F2B
:101830000E94070D58F3BA176207730784079507CC
:1018400020F079F4A6F50C94290D0EF4E0950B2EFA
:10185000BA2FA02D0B01B90190010C01CA01A00102
:101860001124FF27591B99F0593F50F4503E68F15D
:101870001A16F040A22F232F342F4427585FF3CF9E
:10188000469537952795A795F0405395C9F77EF46F
:101890001F16BA0B620B730B840BBAF09150A1F0B8
:1018A000FF0FBB1F661F771F881FC2F70EC0BA0F3E
:1018B000621F731F841F48F4879577956795B795C6
:1018C000F7959E3F08F0B0CF9395880F08F09927C1
:1018D000EE0F9795879508950E94730C6894B11147
:1018E0000C942A0D08950E940F0D88F09F5798F0D0
:1018F000B92F9927B751B0F0E1F0660F771F881F15
:10190000991F1AF0BA95C9F714C0B13091F00E942E
:10191000290DB1E008950C94290D672F782F8827A1
:10192000B85F39F0B93FCCF3869577956795B39555
:10193000D9F73EF490958095709561957F4F8F4FC4
:101940009F4F0895E89409C097FB3EF490958095C9
:10195000709561957F4F8F4F9F4F9923A9F0F92F75
:1019600096E9BB279395F695879577956795B795F3
:10197000F111F8CFFAF4BB0F11F460FF1BC06F5FD9
:101980007F4F8F4F9F4F16C0882311F096E911C0EB
:10199000772321F09EE8872F762F05C0662371F00C
:1019A00096E8862F70E060E02AF09A95660F771F20
:1019B000881FDAF7880F9695879597F9089597F914
:1019C0009F6780E870E060E008959FEF80EC0895E5
:1019D00000240A941616170618060906089500240E
:1019E0000A9412161306140605060895092E039488
:1019F000000C11F4882352F0BB0F40F4BF2B11F4FC
:101A000060FF04C06F5F7F4F8F4F9F4F089557FD5A
:101A10009058440F551F59F05F3F71F04795880F5C
:101A200097FB991F61F09F3F79F0879508951216F3
:101A300013061406551FF2CF4695F1DF08C016169F
:101A400017061806991FF1CF869571056105089450
:101A50000895E894BB2766277727CB0197F9089567
:101A60000E94430D0C94F60C0E94E80C38F00E9482
:101A7000EF0C20F0952311F00C94DF0C0C94E50C86
:101A800011240C942A0D0E94070D70F3959FC1F349
:101A9000950F50E0551F629FF001729FBB27F00D1C
:101AA000B11D639FAA27F00DB11DAA1F649F662771
:101AB000B00DA11D661F829F2227B00DA11D621FC0
:101AC000739FB00DA11D621F839FA00D611D221F7A
:101AD000749F3327A00D611D231F849F600D211D5E
:101AE000822F762F6A2F11249F5750409AF0F1F0E1
:101AF00088234AF0EE0FFF1FBB1F661F771F881F4A
:101B000091505040A9F79E3F510580F00C94DF0C96
:101B10000C942A0D5F3FE4F3983ED4F386957795B5
:101B20006795B795F795E7959F5FC1F7FE2B880FEF
:101B3000911D9695879597F90895AA1BBB1B51E1B6
:101B400007C0AA1FBB1FA617B70710F0A61BB70B2D
:101B5000881F991F5A95A9F780959095BC01CD01D2
:101B60000895A1E21A2EAA1BBB1BFD010DC0AA1FDE
:101B7000BB1FEE1FFF1FA217B307E407F50720F0F6
:101B8000A21BB30BE40BF50B661F771F881F991F71
:101B90001A9469F760957095809590959B01AC01BA
:101BA000BD01CF010895052E97FB1EF400940E94FD
:101BB000EA0D57FD07D00E94B10D07FC03D04EF48B
:101BC0000C94EA0D50954095309521953F4F4F4F1D
:101BD0005F4F089590958095709561957F4F8F4FD9
:101BE0009F4F08950E94FF0DB7FF0895821B930B2E
:101BF0000895EE0FFF1F0590F491E02D0994A29F28
:101C0000B001B39FC001A39F700D811D1124911DD0
:101C1000B29F700D811D1124911D0895F894FFCF7E
:101C2000FF0605040C0B08073132333435363738DC
:101C30003923302A000000004004A003CD038D04A6
:101C4000FE03DC03F0030000000069036D03710371
:101C5000416C61726D612064657361637469766162
:101C60006461000D0A00416C61726D6120616374F2
:101C7000697661646100496E6772657365206C61A5
:101C800020636F6E74726173656E61206E75657628
:101C9000616D656E74650076616C75653A200054FF
:101CA000656D70657261747572613A2000202D2037
:101CB00048756D656461643A200056656E74696CA0
:101CC00061646F7220656E63656E6469646F2E0077
:101CD00056656E74696C61646F72206170616761D2
:101CE000646F2E0043616C6566616363696F6E208B
:101CF000656E63656E646964612E0043616C656640
:101D0000616363696F6E20617061676164612E0059
:101D1000496C756D696E6163696F6E3A20004C6540
:101D20006420656E63656E6469646F2E004C656443
:0A1D3000206170616761646F2E008E
:00000001FF
