:100000000C9462000C948A000C948A000C948A0070
:100010000C948A000C948A000C948A000C948A0038
:100020000C948A000C948A000C948A000C948A0028
:100030000C948A000C948A000C948A000C948A0018
:100040000C9481030C948A000C94F1030C94CB0360
:100050000C948A000C948A000C948A000C948A00F8
:100060000C948A000C948A000000000024002700F1
:100070002A0000000000250028002B0000000000DE
:1000800023002600290004040404040404040202DA
:100090000202020203030303030301020408102007
:1000A0004080010204081020010204081020000012
:1000B0000008000201000003040700000000000027
:1000C0000000230411241FBECFEFD8E0DEBFCDBF58
:1000D00011E0A0E0B1E0E0EBFFE002C005900D927E
:1000E000AC3DB107D9F722E0ACEDB1E001C01D9203
:1000F000AD3FB207E1F710E0C2E6D0E004C02197BF
:10010000FE010E94D007C136D107C9F70E94B10491
:100110000C94D6070C94000096E0899FD00111241E
:10012000A257BD4F90967C936E935F9791E0919606
:100130009C939197E091FB02F091FC029091FA025E
:10014000992339F0309751F0811108C08091AA02AB
:100150000994309719F05C968C91FACF0895CF925C
:10016000DF92EF92FF920F931F9396E0899FF00129
:100170001124E257FD4F11A2278D30A12130310506
:1001800051F178F02230310509F451C023303105A6
:1001900009F452C01F910F91FF90EF90DF90CF9024
:1001A00008956623B9F361E070E00E948C002FB7D8
:1001B000F8948091ED019091EE01A091EF01B09142
:1001C000F0012FBF8093E6029093E702A093E8022C
:1001D000B093E902DFCF9FB7F894C090ED01D090C3
:1001E000EE01E090EF01F090F0019FBF0091E60278
:1001F0001091E7022091E8023091E902C01AD10A79
:10020000E20AF30A0091F8021091F90230E020E0CE
:100210000C151D052E053F0550F462E070E01F919E
:100220000F91FF90EF90DF90CF900C948C006111B4
:10023000B1CF63E070E0F3CF70E060E0F0CF8330E7
:1002400081F028F4813099F08230A9F00895873048
:10025000A9F08830C9F08430B1F4809180008F7D9E
:1002600003C0809180008F7780938000089584B5CB
:100270008F7784BD089584B58F7DFBCF8091B000CA
:100280008F778093B00008958091B0008F7DF9CF73
:10029000CF93DF93282F30E0F901E255FF4F84918F
:1002A000F901E656FF4FD491F901EA57FF4FC49187
:1002B000CC23A1F081110E941F01EC2FF0E0EE0F82
:1002C000FF1FE458FF4FA591B491EC91ED2381E01D
:1002D00090E009F480E0DF91CF91089580E090E014
:1002E000FACF1F93CF93DF93282F30E0F901E25527
:1002F000FF4F8491F901E656FF4FD491F901EA5777
:10030000FF4FC491CC23A9F0162F81110E941F0129
:10031000EC2FF0E0EE0FFF1FEE58FF4FA591B491C8
:100320008FB7F894EC91111108C0D095DE23DC93BF
:100330008FBFDF91CF911F910895DE2BF8CFCF9320
:10034000DF9390E0FC01E656FF4F24918A579F4FC0
:10035000FC0184918823C9F090E0880F991FFC016B
:10036000E859FF4FA591B491FC01EE58FF4FC5919C
:10037000D49161110DC09FB7F8948C912095822380
:100380008C938881282328839FBFDF91CF91089584
:10039000623051F49FB7F8943C91822F809583236B
:1003A0008C93E8812E2BEFCF8FB7F894EC912E2B06
:1003B0002C938FBFEACF862F642F0C949F01862F3A
:1003C000642F0C947101862F0C944801AF92BF9258
:1003D000CF92DF92EF92FF920F931F93CF93DF9311
:1003E0006C017B018B01040F151FEB015E01AE1840
:1003F000BF08C017D10759F06991D601ED91FC9162
:100400000190F081E02DC6010995892B79F7C5018E
:10041000DF91CF911F910F91FF90EF90DF90CF90E0
:10042000BF90AF900895FC01538D448D252F30E08F
:10043000842F90E0821B930B541710F0CF960895F1
:1004400001970895FC01918D828D981761F0A28D1E
:10045000AE0FBF2FB11D5D968C91928D9F5F9F73E4
:10046000928F90E008958FEF9FEF0895FC01918D9A
:10047000828D981731F0828DE80FF11D858D90E007
:1004800008958FEF9FEF0895FC01918D228D892FA4
:1004900090E0805C9F4F821B91098F73992708958C
:1004A00081EF91E00E94440221E0892B09F420E0D1
:1004B000822F089580E090E0892B29F00E9450025D
:1004C00081110C9400000895FC01A48DA80FB92F90
:1004D000B11DA35ABF4F2C91848D90E001968F736C
:1004E0009927848FA689B7892C93A089B1898C918B
:1004F000837080648C93938D848D981306C00288DA
:10050000F389E02D80818F7D80830895EF92FF92A3
:100510000F931F93CF93DF93EC0181E0888F9B8D26
:100520008C8D98131AC0E889F989808185FF15C0E0
:100530009FB7F894EE89FF896083E889F989808103
:100540008370806480839FBF81E090E0DF91CF91D2
:100550001F910F91FF90EF900895F62E0B8D10E0F4
:100560000F5F1F4F0F731127E02E8C8D8E110CC063
:100570000FB607FCFACFE889F989808185FFF5CFAE
:10058000CE010E946402F1CFEB8DEC0FFD2FF11D27
:10059000E35AFF4FF0829FB7F8940B8FEA89FB89EB
:1005A00080818062CFCF682F81EF91E00C9486022A
:1005B000CF93DF93EC01888D8823B9F0AA89BB899A
:1005C000E889F9898C9185FD03C0808186FD0DC085
:1005D0000FB607FCF7CF8C9185FFF2CF808185FFA6
:1005E000EDCFCE010E946402E9CFDF91CF91089553
:1005F0008F929F92AF92BF920F931F93CF93DF93EF
:10060000CDB7DEB7A1970FB6F894DEBF0FBECDBF52
:1006100019A2423008F44AE08E010F5D1F4F842E6C
:10062000912CB12CA12CA50194010E949A07E62FD0
:10063000B901CA01EA3044F5E05DD801EE938D01BD
:10064000232B242B252B79F790E080E0109769F07D
:10065000FD0101900020E9F73197AF014A1B5B0BC8
:10066000BD0181EF91E00E94E601A1960FB6F894DA
:10067000DEBF0FBECDBFDF91CF911F910F91BF9015
:10068000AF909F908F900895E95CD7CFFC010190C7
:100690000020E9F73197AF01481B590BBC0181EFEE
:1006A00091E00C94E601CF92DF92EF92FF92CF930C
:1006B000DF936C01990FEE08FF08F7FE17C08DE27B
:1006C0000E94D302EC0166277727CB016C197D09C4
:1006D0008E099F094AE00E94F8028C0F9D1FDF914E
:1006E000CF91FF90EF90DF90CF9008954AE0C7013F
:1006F000B601DF91CF91FF90EF90DF90CF900C94F7
:10070000F8021F920F920FB60F9211242F933F936E
:100710008F939F93AF93BF938091ED019091EE01E2
:10072000A091EF01B091F0013091EC0123E0230F93
:100730002D3758F50196A11DB11D2093EC01809332
:10074000ED019093EE01A093EF01B093F001809141
:10075000E8019091E901A091EA01B091EB010196C5
:10076000A11DB11D8093E8019093E901A093EA01D6
:10077000B093EB01BF91AF919F918F913F912F91DA
:100780000F900FBE0F901F90189526E8230F02962A
:10079000A11DB11DD2CF1F920F920FB60F9211243F
:1007A0002F933F934F935F936F937F938F939F9379
:1007B000AF93BF93EF93FF9381EF91E00E946402A8
:1007C000FF91EF91BF91AF919F918F917F916F9129
:1007D0005F914F913F912F910F900FBE0F901F90FF
:1007E00018951F920F920FB60F9211242F938F938B
:1007F0009F93EF93FF93E0910102F09102028081B9
:10080000E0910702F091080282FD1BC09081809167
:100810000A028F5F8F7320910B02821741F0E091E3
:100820000A02F0E0EF50FE4F958F80930A02FF918D
:10083000EF919F918F912F910F900FBE0F901F906E
:1008400018958081F4CF1092F4011092F30188EE94
:1008500093E0A0E0B0E08093F5019093F601A093BF
:10086000F701B093F8018BE191E09093F20180934E
:10087000F10185EC90E09093FE018093FD0184EC02
:1008800090E0909300028093FF0180EC90E09093C1
:1008900002028093010281EC90E090930402809325
:1008A000030282EC90E0909306028093050286ECAE
:1008B00090E0909308028093070210920A0210922F
:1008C0000B0210920C0210920D02109290021092E4
:1008D000940210929302109295028DE291E090930F
:1008E0008F0280938E02EAEAF2E010821482138271
:1008F0001582369682E0E63EF807B9F783E091E08C
:100900009093F1028093F00280E091E09093F302E3
:100910008093F20284E08093F40283E08093F502F6
:1009200087E091E09093EF028093EE028AE090E0FE
:100930009093F7028093F60284EF91E09093F9028E
:100940008093F8021092FC021092FB021092EA02CD
:100950001092EB021092EC021092ED021092FA0249
:100960000895CF93DF931F92CDB7DEB7789484B507
:10097000826084BD84B5816084BD85B5826085BD9B
:1009800085B5816085BD80916E00816080936E0029
:10099000109281008091810082608093810080911B
:1009A00081008160809381008091800081608093CC
:1009B00080008091B10084608093B1008091B0008C
:1009C00081608093B00080917A00846080937A0087
:1009D00080917A00826080937A0080917A008160B1
:1009E00080937A0080917A00806880937A001092D8
:1009F000C100E0910102F091020282E08083E09167
:100A0000FD01F091FE011082E091FF01F0910002E2
:100A10008FEC808310920902E0910502F0910602AA
:100A200086E08083E0910302F0910402808180617E
:100A30008083E0910302F0910402808188608083CA
:100A4000E0910302F0910402808180688083E0914C
:100A50000302F091040280818F7D8083412C512C10
:100A60003201439488248394912C51E05093FA02EC
:100A70008FB7F8944091ED015091EE016091EF0134
:100A80007091F0018FBF8091EA029091EB02A091EA
:100A9000EC02B091ED02481B590B6A0B7B0B809165
:100AA000F6029091F702B0E0A0E084179507A60740
:100AB000B70708F01FC110E08091F402181760F426
:100AC000E091F002F091F102E10FF11D62E080810E
:100AD0000E949F011F5FF0CF312C8091F5023816E4
:100AE00008F061C0E32CF12CE091F202F091F302E6
:100AF000EE0DFF1D61E080810E949F01E091F202F6
:100B0000F091F302EE0DFF1D60E080810E94710103
:100B1000D301C201032C04C0880F991FAA1FBB1F59
:100B20000A94D2F75C016C01C094D094212C80917E
:100B3000F402281608F5022D10E0E091F002F09181
:100B4000F102E00FF11F80810E9448010C5F1F4FEE
:100B5000000F111FF801E257FD4F892B41F48081EE
:100B600091818A299B29918380832394E0CF80817E
:100B700091818C219D21F7CFE091F202F091F30257
:100B8000EE0DFF1D61E080810E9471018091F202F3
:100B90009091F302E80EF91E60E0F70180810E9457
:100BA0009F0133949ACF0EE812E0F801878D90A14F
:100BB000892B31F4148E8FEF9FEF968F858F11A2C2
:100BC000369692E0EA3CF90789F7F12C8091F4021D
:100BD000F81608F053C0E12CCF2CD12CCC0CDD1C26
:100BE000F601EA56FD4F6F012091F502E21608F07A
:100BF00043C0F601608171810E2C02C07695679525
:100C00000A94E2F7F29E900111242E0D311DEEE8B8
:100C1000F2E080E0458D568D2417350709F44EC16A
:100C20008F5F36968A30B1F760FF24C0EEE8F2E0BD
:100C300090E080E0448D411118C0E091EE02F09107
:100C4000EF02E20FF31F408156E0589FF001599FD9
:100C5000F00D1124E257FD4F448F368F258F10A2DF
:100C6000178E61E00E94AF0005C0019636968A306B
:100C7000910501F7E394B8CFF394A8CF80E0F80191
:100C800091A19111892F0A5F1F4FF2E00A3C1F07C3
:100C9000B1F79FB7F8944091ED015091EE0160914A
:100CA000EF017091F0019FBF4093EA025093EB0275
:100CB0006093EC027093ED028823E1F08091AF0223
:100CC0008823C1F08091AD029091AE02019791F41A
:100CD0008091AA028983811110C080E090E0892B65
:100CE00009F4C3CE0E945002882309F4BECE0E94AC
:100CF0000000BBCE1092FA02F0CFCE0101960E9406
:100D000060078C01E090E601F090E70183E391E059
:100D10000E944603C8010E945303C801880F991F0F
:100D2000059667E070E00E9486078C0189E391E0F8
:100D30000E944603C8010E94530387E491E00E9489
:100D40004603F701EE0FFF1FE252FE4F11830083AF
:100D50008AE491E00E944603E091E601F091E70108
:100D6000EE0FFF1FE252FE4F808191810E945303DC
:100D700087E491E00E9446038BE591E00E944603E0
:100D8000E091E601F091E701ED5EFE4F80810E9467
:100D9000D30287E491E00E9446038BE691E00E9433
:100DA00046038091DE019091DF010E945303809100
:100DB000E0019091E1010E9453038091E201909142
:100DC000E3010E9453038091E4019091E5010E94A8
:100DD000530387E491E00E94460382E891E00E9479
:100DE000460385E30E94D30280E30E94D30282E39C
:100DF0000E94D30283E30E94D30287E491E00E9421
:100E000046038091E6019091E70101969093E701F6
:100E10008093E601049709F060CF81E02091DE0124
:100E20003091DF012533310509F080E091E0209118
:100E3000E0013091E1012033310509F090E0892390
:100E400091E02091E2013091E3012233310509F074
:100E500090E0892351F18091E4019091E501C397DD
:100E600021F58091DC019091DD01019789F488E9F9
:100E700091E00E94460387E491E00E9446031092AD
:100E8000DD011092DC011092E7011092E60125CFFE
:100E90008BEA91E00E94460387E491E00E944603BA
:100EA0009092DD018092DC01EECF8BEB91E00E940D
:100EB000460387E491E00E944603E5CF6170D2CEFD
:100EC000FC0188279927E89421912032E9F3293001
:100ED00010F02E30C8F32B3241F02D3239F46894E3
:100EE00004C00E947E07820F911D219120532A3059
:100EF000C0F31EF4909581959F4F08957AE0979FD7
:100F0000902D879F802D910D1124089597FB072E1A
:100F100016F4009407D077FD09D00E94BC0707FCA7
:100F200005D03EF4909581959F4F089570956195F9
:100F30007F4F0895A1E21A2EAA1BBB1BFD010DC015
:100F4000AA1FBB1FEE1FFF1FA217B307E407F50779
:100F500020F0A21BB30BE40BF50B661F771F881F55
:100F6000991F1A9469F760957095809590959B01EB
:100F7000AC01BD01CF010895AA1BBB1B51E107C005
:100F8000AA1FBB1FA617B70710F0A61BB70B881F19
:100F9000991F5A95A9F780959095BC01CD010895A8
:100FA000EE0FFF1F0590F491E02D0994F894FFCF08
:100FB0000605040C0B08073132333435363738391F
:100FC00023302A35303233000000008602E6011358
:100FD00002D80244022202360200000000DB01DFD8
:100FE00001E301782065733A00726573756C746172
:100FF000646F2065733A000D0A00636F6469676F60
:101000002063617261637465723A00636C61766536
:101010002067756172646164613A00636F64696737
:101020006F20636172616374657220746F74616CA8
:101030003A00636C61766520677561726461646112
:1010400020746F74616C3A00416C61726D61206450
:101050006573616374697661646100416C61726D8E
:101060006120616374697661646100496E677265CD
:101070007365206C6120636F6E74726173656E615D
:0C108000206E756576616D656E7465000C
:00000001FF
