:100000000C9463000C948B000C948B000C948B006C
:100010000C948B000C948B000C948B000C94BA0203
:100020000C948B000C948B000C948B000C948B0024
:100030000C948B000C948B000C948B000C948B0014
:100040000C94D7060C948B000C943C030C94160370
:100050000C948B000C948B000C948B000C948B00F4
:100060000C948B000C948B000200000000240027ED
:10007000002A0000000000250028002B00000000DE
:100080000800020100000304070000000000000057
:1000900000000000002300260029000404040404DA
:1000A0000404040202020202020303030303030125
:1000B00002040810204080010204081020010204FC
:1000C00008102000FD0A11241FBECFEFD8E0DEBFCC
:1000D000CDBF12E0A0E0B1E0E6ECFBE102C005908C
:1000E0000D92A231B107D9F723E0A2E1B2E001C03D
:1000F0001D92A236B207E1F710E0C3E6D0E004C0DB
:100100002197FE010E94C70DC236D107C9F70E9490
:1001100021070C94E10D0C940000CF92DF92EF9236
:10012000FF920F931F93CF93DF936C017A018B01A2
:10013000C0E0D0E0CE15DF0581F0D8016D918D01D2
:10014000D601ED91FC910190F081E02DC601099559
:10015000892B11F02196EECF7E01C701DF91CF915F
:100160001F910F91FF90EF90DF90CF900895089529
:1001700080E090E00895FC01538D448D252F30E000
:10018000842F90E0821B930B541710F0CF960895A4
:1001900001970895FC01918D828D981761F0828DF1
:1001A000DF01A80FB11D5D968C91928D9F5F9F73AB
:1001B000928F90E008958FEF9FEF0895FC01918D4D
:1001C000828D981731F0828DE80FF11D858D90E0BA
:1001D00008958FEF9FEF0895FC01918D228D892F57
:1001E00090E0805C9F4F821B91098F73992708953F
:1001F0008BE392E00E94EC0021E0892B09F420E0DF
:10020000822F0895FC01848DDF01A80FB11DA35A30
:10021000BF4F2C91848D90E001968F739927848F26
:10022000A689B7892C93A089B1898C918370806449
:100230008C93938D848D981306C00288F389E02DEA
:1002400080818F7D80830895EF92FF920F931F939B
:10025000CF93DF93EC0181E0888F9B8D8C8D981379
:1002600005C0E889F989808185FD26C0F62E0B8DB1
:1002700010E00F5F1F4F0F731127E02E8C8DE812D7
:100280000CC00FB607FCFACFE889F989808185FF99
:10029000F5CFCE010E940201F1CF8B8DFE01E80F58
:1002A000F11DE35AFF4FF0829FB7F8940B8FEA8954
:1002B000FB89808180620AC09FB7F894EE89FF892C
:1002C0006083E889F98980818370806480839FBF1F
:1002D00081E090E0DF91CF911F910F91FF90EF901F
:1002E0000895CF93DF93EC01888D8823C9F0EA89C4
:1002F000FB89808185FD05C0A889B9898C9186FD1F
:100300000FC00FB607FCF5CF808185FFF2CFA8891B
:10031000B9898C9185FFEDCFCE010E940201E7CF14
:10032000DF91CF91089580E090E0892B29F00E9421
:10033000F80081110C9400000895862F642F0C940E
:10034000090590910001891324C0E8E6F0E0E491EA
:100350009FEF90930001E130B9F098F0E230C9F4DA
:10036000909170009D7F9093700091E09093B00009
:100370009091B100987F94609093B1001092B30077
:1003800008C010926E0005C090916F009D7F909301
:100390006F0060E00C94090583E00C94A101862FA6
:1003A000642F0C943805CF9380910001833021F0A5
:1003B0008F3F09F0D8C004C0E8E6F0E0C49175C0F2
:1003C00083E080930001E8E6F0E0E491EF3F09F478
:1003D000CAC0E13009F446C048F1E23009F064C017
:1003E0001092B0001092B1008091B00082608093B2
:1003F000B0008091B10081608093B100EEE9F0E03F
:10040000E491F0E0EE0FFF1FED58FF4F85919491BE
:1004100090931D0280931C02E2EBF0E0E491E093E4
:100420001E0261E083E00E9438057FC014BC15BC49
:1004300084B5826084BD85B5816085BDEEE9F0E05C
:10044000E491F0E0EE0FFF1FED58FF4F859194917E
:10045000E2EBF0E0E491E093130261E083E00E94BC
:1004600038056BC01092800010928100809181004D
:1004700088608093810080918100816080938100F9
:10048000EEE9F0E0E491F0E0EE0FFF1FED58FF4FD2
:1004900085919491E2EBF0E0E491E093120261E047
:1004A00083E00E9438050EC0CE2FC7FD5CC061E01E
:1004B00083E00E943805CC2309F43FC0C230A9F183
:1004C000C130E9F480918100887F81608093810050
:1004D0008AE09EE890938900809388008FEF9FEFD9
:1004E000DC018093140290931502A0931602B0933E
:1004F000170280916F00826080936F0034C0C23019
:1005000091F58AE08093B3008FEF9FEFDC01809339
:100510001F0290932002A0932102B09322028091A7
:1005200070008260809370001EC08091B100887F4F
:1005300086608093B1008DE8E5CF85B5887F8460C3
:1005400085BD8DE887BD8FEF9FEFDC01809318029A
:1005500090931902A0931A02B0931B0280916E002F
:10056000826080936E00CF910895862F0C94E004F2
:100570000E94DC0D1F920F920FB60F9211242F9341
:100580003F934F935F936F937F938F939F93AF931B
:10059000BF93EF93FF9380911F0290912002A0914F
:1005A0002102B0912202892B8A2B8B2B51F1909141
:1005B0001E02E0911C02F0911D0280818927808338
:1005C00080911F0290912002A0912102B0912202FD
:1005D000181619061A061B06C4F480911F02909182
:1005E0002002A0912102B09122020197A109B10934
:1005F00080931F0290932002A0932102B0932202C5
:1006000004C0809100010E94A101FF91EF91BF9170
:10061000AF919F918F917F916F915F914F913F919A
:100620002F910F900FBE0F901F9018951F920F9251
:100630000FB60F9211242F933F934F935F936F93B5
:100640007F938F939F93AF93BF93EF93FF938BE32E
:1006500092E00E940201FF91EF91BF91AF919F91B3
:100660008F917F916F915F914F913F912F910F905B
:100670000FBE0F901F9018951F920F920FB60F92FA
:1006800011242F938F939F93EF93FF93E0914B024D
:10069000F0914C028081E0915102F091520282FD72
:1006A00012C09081809154028F5F8F732091550208
:1006B000821751F0E0915402F0E0E55CFD4F958F18
:1006C0008093540201C08081FF91EF919F918F919F
:1006D0002F910F900FBE0F901F901895CF92DF9221
:1006E000EF92FF92CF93DF93B091DF02882311F056
:1006F000AB2F01C0A0E08091E00290E0880F991F2D
:100700008F569F4FC090E502D090E602E090E7023E
:10071000F090E80220E030E0FC01C591D491E8813E
:10072000EB23A90160E070E0EA130CC02F5F3F4F9C
:100730004C155D056E057F0578F33FEF2FEF8FEFCA
:100740009FEF03C0322F252FCB01632F722FDF9134
:10075000CF91FF90EF90DF90CF90089596E0899F22
:10076000D0011124A651BD4F90967C936E935F9754
:1007700091E091969C93919790915603E091570345
:10078000F0915803992339F0309751F0811108C046
:100790008091060304C0309719F05C968C910994FF
:1007A0000895833081F028F4813099F08230A1F0EF
:1007B00008958730A9F08830B9F08430D1F4809161
:1007C00080008F7D03C0809180008F7780938000B0
:1007D000089584B58F7702C084B58F7D84BD089558
:1007E0008091B0008F7703C08091B0008F7D80939F
:1007F000B00008953FB7F89480915E0390915F0335
:10080000A0916003B091610326B5A89B05C02F3F5E
:1008100019F00196A11DB11D3FBFBA2FA92F982F26
:100820008827820F911DA11DB11DBC01CD0142E0A1
:10083000660F771F881F991F4A95D1F708958F92E9
:100840009F92AF92BF92CF92DF92EF92FF926B0195
:100850007C010E94FA034B015C01C114D104E10444
:10086000F104F1F00E94FA03DC01CB018819990927
:10087000AA09BB09883E9340A105B10570F321E0A8
:10088000C21AD108E108F10888EE880E83E0981EAC
:10089000A11CB11CC114D104E104F10419F7DDCF8E
:1008A000FF90EF90DF90CF90BF90AF909F908F9090
:1008B0000895009769F0FC0101900020E9F7319755
:1008C000AF01481B590BBC018BE392E00C948D00E7
:1008D00080E090E008950C9459048F929F92AF921B
:1008E000BF92CF92DF92EF92FF920F931F93CF931D
:1008F000DF93CDB7DEB7A1970FB6F894DEBF0FBE7A
:10090000CDBF6B017C0197FF2BC06DE28BE392E0C2
:100910000E9424018C0122273327A9012C193D09AB
:100920004E095F0919A2CE0181967C019AE0892EB9
:10093000912CA12CB12CCA01B901A50194010E94EE
:100940007F0D605DF70162937F012115310541053F
:10095000510589F7CF010E945904800F911F1DC0D6
:100960009B01AC0119A28E010F5D1F4F8AE0C82EBA
:10097000D12CE12CF12CCA01B901A70196010E94EA
:100980007F0D605DF80162938F01211531054105EE
:10099000510589F7CF010E945904A1960FB6F8942A
:1009A000DEBF0FBECDBFDF91CF911F910F91FF90A2
:1009B000EF90DF90CF90BF90AF909F908F90089571
:1009C000CF93DF93282F30E0F901E358FF4F849154
:1009D000F901E155FF4FD491F901E556FF4FC4915C
:1009E000CC2391F081110E94D103EC2FF0E0EE0FA7
:1009F000FF1FEF56FF4FA591B491EC91ED2381E0DD
:100A000090E021F480E002C080E090E0DF91CF919F
:100A100008951F93CF93DF93282F30E0F901E35817
:100A2000FF4F8491F901E155FF4FD491F901E5564B
:100A3000FF4FC491CC23C1F0162F81110E94D10326
:100A4000EC2FF0E0EE0FFF1FED58FF4FA591B49192
:100A50009FB7F894111104C08C91D095D82302C08F
:100A6000EC91DE2BDC939FBFDF91CF911F91089516
:100A7000CF93DF9390E0FC01E155FF4F2491FC01FF
:100A8000E556FF4F8491882361F190E0880F991F0C
:100A9000FC01E759FF4FC591D491FC01ED58FF4F80
:100AA000A591B491611109C09FB7F89488812095F0
:100AB00082238883EC912E230BC0623061F49FB7B0
:100AC000F8948881322F309583238883EC912E2BE4
:100AD0002C939FBF06C08FB7F894E8812E2B2883F4
:100AE0008FBFDF91CF9108952FB7F89460915A038B
:100AF00070915B0380915C0390915D032FBF08951B
:100B0000CF92DF92EF92FF920F931F93CF93DF93D9
:100B1000CDB7DEB7C054D1400FB6F894DEBF0FBEDC
:100B2000CDBF0E9474050091E1021091E202209174
:100B3000E3023091E4026B017C01C01AD10AE20A9F
:100B4000F30A40EDC41647E0D406E104F10418F4BA
:100B50008091E902C1C06093E1027093E202809348
:100B6000E3029093E4021092DC021092DB021092F6
:100B7000DA021092D9021092D80262E08091DD026E
:100B80000E94380561E070E080E090E00E941F0460
:100B900061E08091DD020E94380560E08091DD0215
:100BA0000E9409058091DE028551823028F48BE293
:100BB00091E10197F1F706C064E170E080E090E018
:100BC0000E941F0462E08091DD020E9438058BE9DB
:100BD00090E00197F1F7F89480E00E946E036F3F78
:100BE0007F4F8F4F9F4F21F41092E902789441C0BC
:100BF00081E00E946E036F3F7F4F8F4F9F4FA1F3A5
:100C00008E010F5F1F4F6E012FEBC21A2EEFD20A1B
:100C1000780180E00E946E03F70160837183828314
:100C2000938381E00E946E03F7016483758386835A
:100C30009783F8E0EF0EF11CEC14FD0451F7789463
:100C400020E030E0F801C080D180E280F380448170
:100C5000558166817781FFEFCF16DF06EF06FF062D
:100C600031F04F3F8FEF58076807780721F4109253
:100C7000E90280E031C0F90183E0F595E7958A95B6
:100C8000E1F7E852FD4F8081880FC416D506E606CD
:100C9000F70608F4816080832F5F3F4F085F1F4F86
:100CA0002832310579F62091DC0230E04091D802FB
:100CB0008091D90290E0840F911D4091DA02840F57
:100CC000911D4091DB02840F911D99272817390748
:100CD00071F681E08093E902C05CDE4F0FB6F894B4
:100CE000DEBF0FBECDBFDF91CF911F910F91FF905F
:100CF000EF90DF90CF9008950F931F93CF93DF93E2
:100D0000C82FD62F86E0C89FF0011124E651FD4F71
:100D100011A2878D90A181309105D9F040F08230E9
:100D20009105A9F10397F1F560E070E034C0662306
:100D3000C9F161E070E08C2F0E94AE030E9474053F
:100D4000609342037093430380934403909345035D
:100D500029C00E9474050091420310914303209121
:100D6000440330914503AB01BC01401B510B620BA6
:100D7000730B8091540390915503A0E0B0E0841769
:100D80009507A607B70718F462E070E004C0D11118
:100D900009C063E070E08C2FDF91CF911F910F911C
:100DA0000C94AE03DF91CF911F910F9108951F9284
:100DB0000F920FB60F9211242F933F938F939F930F
:100DC000AF93BF9380915A0390915B03A0915C0312
:100DD000B0915D033091590323E0230F2D3720F4A8
:100DE0000196A11DB11D05C026E8230F0296A11D85
:100DF000B11D2093590380935A0390935B03A093F2
:100E00005C03B0935D0380915E0390915F03A091BA
:100E10006003B09161030196A11DB11D80935E0333
:100E200090935F03A0936003B0936103BF91AF9170
:100E30009F918F913F912F910F900FBE0F901F9018
:100E40001895CF93DF931F92CDB7DEB7789484B512
:100E5000826084BD84B5816084BD85B5826085BDB6
:100E600085B5816085BD80916E00816080936E0044
:100E70001092810080918100826080938100809136
:100E800081008160809381008091800081608093E7
:100E900080008091B10084608093B1008091B000A7
:100EA00081608093B00080917A00846080937A00A2
:100EB00080917A00826080937A0080917A008160CC
:100EC00080937A0080917A00806880937A001092F3
:100ED000C100E0914B02F0914C0282E08083E091EE
:100EE0004702F09148021082E0914902F0914A02D3
:100EF0008FEC808310925302E0914F02F0915002E8
:100F000086E08083E0914D02F0914E028081806105
:100F10008083E0914D02F0914E0280818860808351
:100F2000E0914D02F0914E02808180688083E091D3
:100F30004D02F0914E0280818F7D808362E080912E
:100F4000DD020E9438050E947405DC01CB01805D42
:100F50009740A109B1098093E1029093E202A09326
:100F6000E302B093E40261E08DE00E94380560E0A6
:100F700083E10E94380581E0809356030E94740546
:100F80000091460310914703209148033091490393
:100F9000AB01BC01401B510B620B730B80915203E0
:100FA00090915303A0E0B0E084179507A607B70718
:100FB00008F0E5C010E080915003181710F0912C54
:100FC00042C0E0914C03F0914D03E10FF11D62E04E
:100FD00080810E9438051F5FEECF082D10E0E09160
:100FE0004C03F0914D03E00FF11F80810E94E0045B
:100FF0000C5F1F4F000F111FF801E651FD4F892BA9
:1010000009F04DC0808191818A299B299183808339
:10101000839480915003881600F3E0914E03F09181
:101020004F03EE0DFF1D61E080810E940905809154
:101030004E0390914F03FC01EE0DFF1D60E0808197
:101040000E943805939480915103981668F5E92C15
:10105000F12CE0914E03F0914F03EE0DFF1D61E086
:1010600080810E943805E0914E03F0914F03EE0D10
:10107000FF1D60E080810E94090581E090E0A0E012
:10108000B0E0092C04C0880F991FAA1FBB1F0A9447
:10109000D2F75C016C01C094D094812CBACF8081CE
:1010A00091818C219D21B2CF7AEEE72E72E0F72E4E
:1010B000F701878D90A1892B31F4148E2FEF3FEF2C
:1010C000368F258F11A2369646E253E04E175F0702
:1010D00081F7D12C80915003D81658F5C12C0D2DD5
:1010E00010E0000F111F0E501D4F20915103C2162A
:1010F000F0F4F801408151810C2C02C056954795BF
:101100000A94E2F7642F6170D29E900111242C0D95
:10111000311DEAEEF2E080E0A58DB68D2A173B077F
:1011200009F461C28F5F36968A30B1F73FC2D3941B
:10113000D1CF10E0F70181A1811111E0F6E0EF0EAF
:10114000F11C26E233E02E153F05A1F70E9474053D
:101150006093460370934703809348039093490339
:10116000112369F080910B03882349F080910903D2
:1011700090910A03019719F48091060303C010921D
:10118000560380E08983882309F468C0CE01019664
:101190000E94A70B20912B0230912C02F901EE0F37
:1011A000FF1FED5DFD4F880F991F059667E070E00A
:1011B0000E946B0D918380832F5F3F4F30932C02F1
:1011C00020932B022430310509F048C0809123027E
:1011D000909124020597B1F5809125029091260205
:1011E000892B81F58091270290912802029751F571
:1011F0008091290290912A02039721F5809135026E
:1012000090913602019779F480E391E00E946B049B
:1012100083E491E00E946B040E94CC01109236029C
:101220001092350217C086E491E00E946B0483E4BB
:1012300091E00E946B0441E050E0509336024093ED
:10124000350208C086E591E00E946B0483E491E0DA
:101250000E946B0410922C0210922B0283E10E94D8
:10126000E0048C0190933402809333020E94740551
:101270002B013C018091370290913802A0913902F4
:10128000B0913A02A3019201281B390B4A0B5B0B68
:10129000DA01C901883E9340A105B10508F483C174
:1012A0008091350290913602892B31F00130110581
:1012B00019F40E94D3016BC10E948005882309F4B0
:1012C00040C08091DE028B30E0F18D30C0F085515E
:1012D0008230B8F51091DA02612F6F7770E0762FC7
:1012E00066278091DB02682B80E090E00E94700C02
:1012F0002DEC3CEC4CEC5DE30E94FE0C1EC010910A
:10130000DA026091DB026F7070E080E090E00E9492
:10131000720C2DEC3CEC4CEC5DE30E94FE0C6B017E
:101320007C01612F70E080E090E00E94700C9B01D6
:10133000AC01C701B6010E94CE0B17FF06C0905842
:1013400004C060E070E080EC9FE70E943A0C6B0103
:101350007C011B0170933202609331020E94800570
:101360008823C1F18091DE028B30A0F18D30A8F08E
:101370008551823078F56091D8027091D902762734
:101380006727762780E090E00E94700C2DEC3CEC03
:101390004CEC5DE30E94FE0C21C06091D90270E02C
:1013A00080E090E00E94720C2DEC3CEC4CEC5DE394
:1013B0000E94FE0C4B015C016091D80270E080E05D
:1013C00090E00E94720C9B01AC01C501B4010E9427
:1013D000CE0B04C060E070E080EC9FE70E943A0C06
:1013E0004B015C018B0187E791E00E946B04B60121
:1013F000DD0C880B990B0E946D0485E891E00E943A
:101400006B04B401990C880B990B0E946D0483E462
:1014100091E00E94590443E3241631041CF00E9419
:10142000D30120C05AE1251631049CF0809133028B
:1014300090913402892BA1F00E94CC0181E090E0D0
:101440009093300280932F0210922E0210922D0260
:1014500024C097E12916310454F00035110534F702
:101460000E94CC011092300210922F02EDCFF2E1D7
:101470002F163104ACF78091330290913402892BFE
:1014800061F00E94CC011092300210922F02E1E034
:10149000F0E0F0932E02E0932D0280912F029091C4
:1014A0003002892B19F082E991E002C088EA91E0CC
:1014B0000E946B0483E491E00E946B0480912D02F2
:1014C00090912E02892B19F08CEB91E002C083EDF4
:1014D00091E00E946B0483E491E00E946B0483E43A
:1014E00080937C0080917A00806480937A00809160
:1014F0007A0086FDFCCFA091780080917900B0E061
:10150000B82B40E054E04A1B5B0B20E137E20E941D
:10151000C00D6B017C0126E930E0DA010E94C00DAC
:101520009B01AC01C701B6010E94A10D69017A01BE
:10153000890188EE91E00E946B04B601DD0C880BF6
:10154000990B0E946D0483E491E00E946B040436C1
:1015500011056CF461E08DE00E94380561E08DE0DA
:101560000E94090586EF91E00E946B040CC085E0A3
:1015700092E00E946B0461E08DE00E94380560E01B
:101580008DE00E94090583E491E00E946B04409283
:101590003702509238026092390270923A0283E424
:1015A00091E00E946B040E949301E5CC40FF1DC0B6
:1015B000EAEEF2E080E090E0448D411118C0E09145
:1015C0004A03F0914B03E20FF31F408156E0589F0E
:1015D000F001599FF00D1124E651FD4F448F368FD5
:1015E000258F10A2178E0E947C06C3947ECD019693
:1015F00036968A30910501F7F8CF10923E0210928C
:101600003D0288EE93E0A0E0B0E080933F0290932B
:101610004002A0934102B093420288E191E090938E
:101620003C0280933B0285EC90E0909348028093CB
:10163000470284EC90E090934A028093490280EC48
:1016400090E090934C0280934B0281EC90E0909359
:101650004E0280934D0282EC90E090935002809372
:101660004F0286EC90E090935202809351021092C8
:101670005402109255021092560210925702109284
:10168000EC021092F0021092EF021092F1028AE244
:1016900091E09093EB028093EA02EAEEF2E0148E7E
:1016A00010A2178E11A2369683E0E632F807B9F73A
:1016B00084E091E090934D0380934C0381E091E0AE
:1016C00090934F0380934E0384E08093500383E014
:1016D0008093510388E091E090934B0380934A03F9
:1016E0008AE090E0909353038093520384EF91E05B
:1016F000909355038093540310925803109257030C
:101700001092460310924703109248031092490327
:101710001092560382E18093DD028BE08093DE021B
:10172000E1ECF0E0E491E093DF02EDEAF0E0E49137
:10173000E093E00280E89EE3A0E0B0E08093E50261
:101740009093E602A093E702B093E8020895FC01AB
:1017500088279927E89421912032E9F3293010F065
:101760002E30C8F32B3241F02D3239F4689404C086
:101770000E94C50B820F911D219120532A30C0F386
:101780001EF4909581959F4F08957AE0979F902D34
:10179000879F802D910D112408955058BB27AA27AB
:1017A0000E94E50B0C94C40C0E94B60C38F00E9409
:1017B000BD0C20F039F49F3F19F426F40C94B30CBF
:1017C0000EF4E095E7FB0C94AD0CE92F0E94D50CCC
:1017D00058F3BA17620773078407950720F079F466
:1017E000A6F50C94F70C0EF4E0950B2EBA2FA02D55
:1017F0000B01B90190010C01CA01A0011124FF27BE
:10180000591B99F0593F50F4503E68F11A16F040B8
:10181000A22F232F342F4427585FF3CF46953795B7
:101820002795A795F0405395C9F77EF41F16BA0B7C
:10183000620B730B840BBAF09150A1F0FF0FBB1F2A
:10184000661F771F881FC2F70EC0BA0F621F731F73
:10185000841F48F4879577956795B795F7959E3FD0
:1018600008F0B0CF9395880F08F09927EE0F979561
:10187000879508950E94410C6894B1110C94F80C5E
:1018800008950E94DD0C88F09F5798F0B92F992792
:10189000B751B0F0E1F0660F771F881F991F1AF05B
:1018A000BA95C9F714C0B13091F00E94F70CB1E0BD
:1018B00008950C94F70C672F782F8827B85F39F0BC
:1018C000B93FCCF3869577956795B395D9F73EF4F4
:1018D00090958095709561957F4F8F4F9F4F08959C
:1018E000E89409C097FB3EF49095809570956195BA
:1018F0007F4F8F4F9F4F9923A9F0F92F96E9BB2770
:101900009395F695879577956795B795F111F8CFEB
:10191000FAF4BB0F11F460FF1BC06F5F7F4F8F4F56
:101920009F4F16C0882311F096E911C0772321F04C
:101930009EE8872F762F05C0662371F096E8862FE4
:1019400070E060E02AF09A95660F771F881FDAF73B
:10195000880F9695879597F9089597F99F6780E87E
:1019600070E060E008959FEF80EC089500240A94F1
:101970001616170618060906089500240A9412166A
:101980001306140605060895092E0394000C11F49D
:10199000882352F0BB0F40F4BF2B11F460FF04C04A
:1019A0006F5F7F4F8F4F9F4F089557FD9058440FA3
:1019B000551F59F05F3F71F04795880F97FB991FAE
:1019C00061F09F3F79F0879508951216130614066B
:1019D000551FF2CF4695F1DF08C0161617061806F8
:1019E000991FF1CF86957105610508940895E894D3
:1019F000BB2766277727CB0197F908950E94110D21
:101A00000C94C40C0E94B60C38F00E94BD0C20F05F
:101A1000952311F00C94AD0C0C94B30C11240C9480
:101A2000F80C0E94D50C70F3959FC1F3950F50E010
:101A3000551F629FF001729FBB27F00DB11D639F80
:101A4000AA27F00DB11DAA1F649F6627B00DA11D26
:101A5000661F829F2227B00DA11D621F739FB00DCC
:101A6000A11D621F839FA00D611D221F749F33273C
:101A7000A00D611D231F849F600D211D822F762FD5
:101A80006A2F11249F5750409AF0F1F088234AF0B2
:101A9000EE0FFF1FBB1F661F771F881F915050401E
:101AA000A9F79E3F510580F00C94AD0C0C94F80CF6
:101AB0005F3FE4F3983ED4F3869577956795B795A5
:101AC000F795E7959F5FC1F7FE2B880F911D9695BF
:101AD000879597F90895AA1BBB1B51E107C0AA1F60
:101AE000BB1FA617B70710F0A61BB70B881F991FBF
:101AF0005A95A9F780959095BC01CD010895A1E272
:101B00001A2EAA1BBB1BFD010DC0AA1FBB1FEE1F77
:101B1000FF1FA217B307E407F50720F0A21BB30BC2
:101B2000E40BF50B661F771F881F991F1A9469F73E
:101B300060957095809590959B01AC01BD01CF019A
:101B40000895052E97FB1EF400940E94B80D57FDD2
:101B500007D00E947F0D07FC03D04EF40C94B80D03
:101B600050954095309521953F4F4F4F5F4F0895C9
:101B700090958095709561957F4F8F4F9F4F0895F9
:101B80000E94CD0DB7FF0895821B930B0895EE0FB1
:101B9000FF1F0590F491E02D0994A29FB001B39F1F
:101BA000C001A39F700D811D1124911DB29F700D66
:101BB000811D1124911D089581E090E0F8940C940A
:061BC000E10DF894FFCFD7
:101BC600FF0605040C0B0807313233343536373837
:101BD6003923302A0000000024018D00BB0071016A
:101BE600EC00CA00DE0000000000CF019D01B50236
:101BF600416C61726D6120646573616374697661BD
:101C06006461000D0A00416C61726D61206163744C
:101C1600697661646100496E6772657365206C61FF
:101C260020636F6E74726173656E61206E75657682
:101C3600616D656E74650054656D7065726174756D
:101C460072613A2000202D2048756D656461643A02
:101C5600200056656E74696C61646F7220656E63F0
:101C6600656E6469646F2E0056656E74696C616496
:101C76006F72206170616761646F2E0043616C65ED
:101C860066616363696F6E20656E63656E64696421
:101C9600612E0043616C6566616363696F6E2061E6
:101CA6007061676164612E00496C756D696E616370
:101CB600696F6E3A20004C656420656E63656E64DC
:101CC60069646F2E004C6564206170616761646FA2
:021CD6002E00DE
:00000001FF
